:020000040800F2
:10000000C83E05201903000895EC00086376000837
:1000100061E0000859160008F54A010800000000D8
:100020000000000000000000000000003D2F01085B
:10003000791E00080000000081120008C531010887
:100040005303000853030008530300085303000838
:100050005303000853030008530300085303000828
:100060005303000853030008530300085303000818
:100070005303000853030008530300085303000808
:1000800053030008530300085303000853030008F8
:1000900053030008530300085303000853030008E8
:1000A00053030008530300085303000853030008D8
:1000B0005303000853030008A93201085303000842
:1000C00053030008530300085303000853030008B8
:1000D0005303000879490108494A01088D4A01087B
:1000E0005303000853030008530300085303000898
:1000F0005303000853030008530300085303000888
:100100005303000853030008293301085303000870
:100110005303000853030008530300083533010854
:1001200053030008111D000853030008E11D0008D7
:100130005303000853030008530300085303000847
:100140005303000853030008530300085303000837
:100150005303000853030008530300085303000827
:100160005303000853030008530300085303000817
:1001700053030008530300088D1C00080000000012
:1001800053030008530300085303000853030008F7
:1001900053030008530300085303000853030008E7
:1001A00053030008530300085303000853030008D7
:1001B00053030008530300085303000853030008C7
:1001C0005303000853030008000000005303000815
:1001D00053030008530300085303000853030008A7
:1001E0005303000853030008530300085303000897
:1001F000530300085303000800F002F800F075F8FC
:100200000AA090E8000C82448344AAF10107DA4571
:1002100001D100F06AF8AFF2090EBAE80F0013F04E
:10022000010F18BFFB1A43F00103184718C402005E
:1002300038C402000A444FF0000C10F8013B13F0E0
:10024000070408BF10F8014B1D1108BF10F8015B2F
:10025000641E05D010F8016B641E01F8016BF9D122
:1002600013F0080F1EBF10F8014BAD1C0C1B09D179
:100270006D1E58BF01F801CBFAD505E014F8016BEB
:1002800001F8016B6D1EF9D59142D6D3704700007D
:100290000023002400250026103A28BF78C1FBD88F
:1002A000520728BF30C148BF0B60704703681B0A64
:1002B00028BF41F08001642900F09E81752900F07B
:1002C0009B81782900F03D82E42900F0D1816329E7
:1002D00000F08B86732900F09086002070471FB5D0
:1002E00025F008F91FBD10B510BD00F03FFF114605
:1002F000FFF7F5FF1AF02CFF00F05DFF03B4FFF7E6
:10030000F2FF03BC15F09BFB30BF72B6704762B6BC
:10031000704780F30888704711488047DFF8440031
:10032000016841F470010160BFF34F8FDFF83800BE
:10033000016821F040410160BFF36F8F0B48004717
:10034000FEE7FEE7FEE7FEE7FEE7FEE7FEE7FEE785
:10035000FEE7FEE706480749074A084B70470000DA
:10036000E931010888ED00E034EF00E0F901000810
:10037000C8380520C83E0520C83A0520C83A0520DF
:1003800072B6704762B67047EFF3108072B670476E
:1003900080F31088704730BF704720BF7047B0FAB5
:1003A00080F0704790FAA0F0B0FA80F0704790FAB1
:1003B000A0F07047704753EA020C00F069802DE905
:1003C000F04B4FF00006002B1FBFB3FA83F503FA82
:1003D00005F424FA05F65E4012BF1643B2FA82F520
:1003E00002FA05F4C5F120051EBF22FA05FC44EA15
:1003F0000C04203556EA044C4FEA144418BF641C20
:100400004FF000084FF00009904271EB030C39D314
:10041000002919BFB1FA81F701FA07F6B0FA80F79F
:1004200000FA07F6C7F120071EBF20FA07FC46EACC
:100430000C062037B6FBF4FCA7EB0507103F07F0CE
:100440001F0BCBF120060CFA0BFB2CFA06F644BF6F
:10045000B3460026202FA4BF5E464FF0000B5BEA98
:10046000060C08BF4FF0010B19EB0B09ABFB027C2C
:1004700048EB0608C01B06FB02CC0BFB03CC71EB60
:100480000C01C1E70B46024641464846BDE8F08BE9
:1004900013B54FF000004FF00001AFF30080BDE84E
:1004A0001C407047B2F120030AD5C2F1200320FAA4
:1004B00002F001FA03F341FA02F140EA0300704747
:1004C00041FA03F04FEAE171704710B54C1084EA2D
:1004D000530404D54042C1F1000138BF491E1B42FC
:1004E00004D55242C3F1000338BF5B1EFFF763FF20
:1004F00014F0804F04D04042C1F1000138BF491EC2
:1005000014F0004F04D05242C3F1000338BF5B1E09
:1005100010BD00000FB4044910B503AA029800F002
:1005200071FD10BC5DF814FB480002200FB41CB52F
:10053000084B06AA7B4469460090059800F033FDFD
:1005400004460020694600F041FD20461CBC5DF8D1
:1005500014FB0000950A000070B504468569006828
:10056000C10601D5302600E02026C00707D070BDA7
:10057000D4E9012130469047206A401C20626D1E5C
:10058000F6D570BD70B5044685690078C00707D1FF
:1005900070BDD4E9012120209047206A401C2062D0
:1005A0006D1EF6D570BD70B50C460546012A05D006
:1005B0002878800600D5EA69002302E0012305E0DF
:1005C0005B1C934202D2E05C0028F9D1A869E618CE
:1005D000C01AA861286A184428622846FFF7BCFFA1
:1005E00004E0D5E9012114F8010B9047B442F8D397
:1005F0002846FFF7C7FF70BD2DE9F04106460024ED
:1006000010687529314616A510D0AFF30080002878
:1006100002DA404213A507E031688A0701D512A526
:1006200002E0490704D511A5012401E0AFF30080E1
:1006300000210A2206F1240709E0B0FBF2FCB0FB1E
:10064000F2F302FB1C00303078541846491C002895
:10065000F3D123462A463046BDE8F04100F044BCC1
:10066000000000002D0000002B0000002000000012
:100670002DE9F0418046D21D22F007020025D2E983
:100680000002F52915A614D0011E72F1000106DA48
:100690000023D0EB030063EB020211A608E0D8F8B8
:1006A00000108B0701D50FA602E0490701D50EA661
:1006B00001251146002408F1240704E000F0C4FBE2
:1006C00030323A55641C50EA0102F7D12B463246CB
:1006D00021464046BDE8F04100F006BC00000000A5
:1006E0002D0000002B00000020000000F0B40D469B
:1006F0000188090502D5214C7C4402E01F4C7C4452
:100700000E34002100F1240608E002F00F07120960
:10071000E75D42EA03721B097754491C52EA03075A
:10072000F3D102780023120704D5702D06D009B149
:10073000022311342246F0BC00F0D6BB0123103452
:10074000F8E770B504460D4621461068AFF3008007
:10075000024629462046BDE870400023C6E7D21D68
:1007600022F00703D3E90023C0E70368126843F0CF
:10077000200303600823C3610023B7E78FB802009A
:100780002DE9F05F894604464FF0000ADFF874B1A6
:10079000FB44C0F820A02046E1688847002874D0B8
:1007A000252806D0D4E901219047206A401C206208
:1007B000F1E700265F462046E16888472028054685
:1007C00007DB312D05D2781910F8200C08B106434B
:1007D000F1E7B00701D526F00406C4F81CA00027F5
:1007E000C4F818A02A2D09D0284615F021F938B3ED
:1007F00004EB8708303DC8F8185019E059F8041B7D
:10080000204604EB87029161E1688847012F054685
:1008100018D1E069002820DA26F020061DE0D8F87B
:10082000180000EB800005EB40003038C8F81800D5
:100830002046E1688847054615F0FAF80028EED111
:10084000012F0AD02E2D08D12046E16888477F1C51
:100850000546022F46F02006C4DBA069002803DA13
:10086000404246F00106A061F00701D026F01006D4
:100870006C2D0BD0682D09D04C2D39D06A2D35D078
:10088000742D35D07A2D33D016E038E0E1682F464C
:1008900020468847B842054609D16C2F26D04FF430
:1008A0008060E168064320468847054604E06C2FD7
:1008B0001AD04FF4807006430DB3A5F141001928FA
:1008C00002D8203546F400664A462946204626606E
:1008D0004E46FFF7EBFC80B101280BD0F61D26F049
:1008E000070000F1080956E74020E4E78020D8E738
:1008F0000020D6E706F104094DE7284652E7206AB2
:10090000BDE8F09F1FB802002DE9F04F9B46164648
:100910004FF00109C1B020910090A9F1010920A870
:100920005DF8295050F82900C5E04FEA6A0070438D
:100930002C185FEACA7100D1801B5A46214627183D
:100940002846904700280EDD304646EA0501890713
:1009500065D022782978401E05F8012B04F8011B88
:10096000F7D1AD1BA41B5A463946204690470028B4
:1009700023DD5A4639462846904700280EDD30468A
:1009800046EA0501890751D03A782978401E05F8D2
:10099000012B07F8011BF7D1AD1BBF1B304646EA00
:1009A0000401890749D03A782178401E04F8012BC8
:1009B00007F8011BF7D1A41BBF1B314646EA04020E
:1009C000B81B920740D003782278491E04F8013BF7
:1009D00000F8012BF7D12C46871BB84634445A4601
:1009E0004146204690470028F8DB5A464146BF1B47
:1009F000384690470028F8DC304646EA0401A74212
:100A00004FEA81712ED931B33A782178401E04F82B
:100A1000012B07F8011BF7D1A41BBF1BDEE72268DF
:100A20002968001F04C502C4F9D19AE73A68296809
:100A3000001F04C502C7F9D1AEE73A682168001F5C
:100A400004C402C7F9D1B6E703682268091F08C4C5
:100A500004C0F9D1BFE73A682168001F04C402C787
:100A6000F9D1D9E7E1B198F800202178401E04F8C7
:100A7000012B08F8011BF6D1A21B501BB0FBF6F0AE
:100A8000401EAAEB0001491E884216DD0A2910DD2E
:100A900020AB4DF8295043F8290009F1010918E06D
:100AA000D8F800202168001F04C448F8041BF7D1BF
:100AB000E2E70A2810DD824637E70A2807DD4DF80D
:100AC000292020AA42F8291009F10109F3E70A298F
:100AD00002DD15468A4628E7B9F1000F7FF41DAF05
:100AE00041B0BDE8F08F2DE9F04799460F46064624
:100AF000140039D0002F37D00A2F01D9FFF704FF97
:100B00007F1E354607FB04582CE02F46254400E0A5
:100B10003F1BB74205D34A4629463846904700282E
:100B2000F6DC44EA05003B1980070CD0002117E0F1
:100B300029180A1B0F6802E011681151121B9A4212
:100B4000FAD2001D1751A0420CD2F1E768180278C2
:100B500001E007780755001B9842FAD2491C02555C
:100B6000A142F3D34545D0D3BDE8F08730B5054663
:100B70000B462A4613F8014B12F8010B08B1A042AC
:100B8000F8D01CB1002802D06D1CF1E7284630BD1A
:100B900040EA010310B59B070FD1042A0DD310C8FA
:100BA00008C9121F9C42F8D020BA19BA884201D94C
:100BB000012010BD4FF0FF3010BD1AB1D30703D094
:100BC000521C07E0002010BD10F8013B11F8014B4A
:100BD0001B1B07D110F8013B11F8014B1B1B01D166
:100BE000921EF1D1184610BD40EA0103024630B50D
:100BF0009B0710D14FF0013400E008C208C91D1B4B
:100C00009D4315EAC41FF8D013F0FF0102F8011B41
:100C10000DD01B0AF8E711F8013B002B02F8013B4D
:100C200005D011F8013B002B02F8013BF3D130BD98
:100C300010B5431C02E010F8011B71B18107FAD115
:100C40004FF0013202C88C1A8C4314EAC211F9D059
:100C5000C01A0A0603D0C01E10BDC01A10BD0A0477
:100C600001D0801E10BD0902FCD0401E10BD421EE6
:100C700012F8013F002BFBD111F8013B002B02F8C9
:100C8000013BF9D17047032A40F2308010F0030C89
:100C900000F0158011F8013BBCF1020F624498BFCF
:100CA00011F801CB00F8013B38BF11F8013BA2F16C
:100CB000040298BF00F801CB38BF00F8013B11F0E7
:100CC000030300F0B181083AC0F0088051F8043BFA
:100CD000083A51F804CBA0E80810F5E7121D5CBFF4
:100CE00051F8043B40F8043BAFF30080D20724BF27
:100CF00011F8013B11F801CB48BF11F8012B24BFBB
:100D000000F8013B00F801CB48BF00F8012B704709
:100D1000431A28BF9A427FF6B6AF032A1044114403
:100D200040F2268010F0030F1EBF11F8013D521E45
:100D300000F8013D10F0030F7FF4F6AF11F003034C
:100D400000F0B781083AC0F00B8051F8043D083A32
:100D500051F804CD40F8043D40F804CDFFF7F3BF4F
:100D6000121D5CBF51F8043D40F8043DAFF3008014
:100D7000D20724BF11F8013D11F801CD48BF11F889
:100D8000012C24BF00F8013D00F801CD48BF00F858
:100D9000012C70474FF000020429C0F0128010F0BF
:100DA000030C00F0B281CCF1040CBCF1020F18BFAF
:100DB00000F8012BA8BF20F8022BA1EB0C0100F0DA
:100DC000A4B95FEAC17C24BF00F8012B00F8012B15
:100DD00048BF00F8012B70474FF0013C50F8042B3E
:100DE00051F8043B9A4215D1A2EB0C03934313EA4A
:100DF000CC130BD150F8042B51F8043B9A4209D183
:100E0000A2EB0C03934313EACC13E7D04FF000009E
:100E1000704700BFD01A01BAB1FA81F101F0180190
:100E200022FA01F0CB40C1F12001DBB2C0B2C01AFE
:100E30002CFA01F3D11A914311EAC311E6D170479C
:100E4000704770477047704730B5B0F10A024FEAFB
:100E5000900E71F100034EEA817EB0EB0E0061EB63
:100E600091014FEA101E4EEA017E10EB0E0041EB9D
:100E700011114FEA102E4EEA016E10EB0E0041EBFD
:100E800011214FEA104E4EEA014E10EB0E0041EBDD
:100E90001141401841F100014FEAD00040EA417091
:100EA0004FEAD10110EB80054FEA810444EA9074C7
:100EB00044EB01046D1944EB0404521BA3414FF0B1
:100EC000000348BF0A3200D530BD401C41F100018B
:100ED00030BD10B500F042F9006810BD10B50446F1
:100EE00000F03CF9046010BD2DE9F0470D4699462D
:100EF0009246044600F124080168880604D5E0699A
:100F000021F01001216000E00120A84201DD471B13
:100F100000E00027A1697A1902EB0900081AA06114
:100F20002078C00602D42046FFF716FB002608E012
:100F3000D4E901211AF806009047206A401C761C6B
:100F400020624E45F4DB2078C0060AD52046FFF724
:100F500003FB06E0D4E9012130209047206A401CC1
:100F60002062381EA7F10107F4DC07E0D4E9012173
:100F700018F805009047206A401C2062281EA5F141
:100F80000105F3DC2046FFF7FDFA2078000602D5C4
:100F90000220BDE8F0870120FBE7000001694A1C40
:100FA00002610878704700B58FB0CDE901310021AA
:100FB000059105497944CDE9031011466846FFF7CC
:100FC000DFFB0FB000BD0000E5FFFFFF0A6802F87D
:100FD000010B0A60704710B5436913B1AFF300808D
:100FE00001E0FFF7E0FA012010BD127800F12401C2
:100FF0000A7000224A700122EDE711684FF0FF32BB
:10100000E9E70000074B70B50D467B44FFF7CBFFC7
:101010000446284600F0A6F810B14FF0FF3070BD2E
:10102000204670BD3B90010010B5203AC0F00B8007
:10103000B1E81850203AA0E81850B1E81850A0E8DC
:101040001850BFF4F5AF5FEA027C24BFB1E8185036
:10105000A0E8185044BF18C918C0BDE810405FEAA6
:10106000827C24BF51F8043B40F8043B08BF704722
:10107000D20728BF31F8023B48BF11F8012B28BF27
:1010800020F8023B48BF00F8012B7047431A28BFE5
:101090009A427FF6C9AF104410F0030F11441EBFEF
:1010A00011F8013D521E00F8013D10F0030F7FF4CE
:1010B000F6AF103AC0F00A8010B531E91850103A76
:1010C00020E91850BFF4F9AFBDE81040530724BF22
:1010D00031E9081020E9081044BF51F8043D40F8F8
:1010E000043D12F0030F08BF7047D20728BF31F844
:1010F000023D48BF11F8012C28BF20F8023D48BF2F
:1011000000F8012C70474FF0000200B513469446DA
:101110009646203922BFA0E80C50A0E80C50B1F14F
:101120002001BFF4F7AF090728BFA0E80C5048BF63
:101130000CC05DF804EB890028BF40F8042B08BF01
:10114000704748BF20F8022B11F0804F18BF00F8FD
:10115000012B7047004870476838052000487047E9
:1011600068380520007B00F0800070477546FFF767
:10117000F1FFAE4605006946534620F0070085465C
:1011800018B020B5FFF7E6F8BDE820404FF00006A4
:101190004FF000074FF000084FF0000B21F007015F
:1011A000AC46ACE8C009ACE8C009ACE8C009ACE8A2
:1011B000C0098D4670470446AFF300802046FFF714
:1011C0009DF80000EFF3098141B1F1EE101A40F8EB
:1011D000041D20ED200A3E490A6810607047B0ECFB
:1011E000200A02C8E1EE101A3A490A6810607047F6
:1011F00072B64EF62250CEF2000040F2FF01C0F26D
:10120000000101704FF0000080F309880EF058FDD6
:1012100040F23420C2F20200016881F3088840F2F3
:10122000BE10C2F2020040F2BF11C2F202010A78FF
:10123000027040F22C25C2F2020540F23021C2F2C7
:1012400002010A682A60106880F30988EFF31480AD
:1012500040F0020080F31488BFF36F8FBDE8F00FF9
:101260000FBCBDE8005006BC62B608471A484FF0F4
:1012700080510160704718484FF0805101607047FD
:1012800072B6EFF3098020E9F00F40F22C25C2F28C
:1012900002052E68306074460EF012FD40F2BE105A
:1012A000C2F2020040F2BF11C2F202010A780270DB
:1012B00040F23021C2F202010A682A6044F0F40EC2
:1012C0001068B0E8F00F80F3098862B6704700003C
:1012D0002C0202203002022004ED00E01B4D84B0FD
:1012E0001B4C012705F124064FF008080DF1080AF0
:1012F0004FF000091749164811F046F8A879D8B1FF
:10130000EF712178012917D1082888BF85F8068058
:1013100006210F4800F058FAE179B1EB102F0BD1FC
:10132000A179C0B2814208BF002005D1215C3154AF
:10133000401CC0B20828F9D3002205231146CDE98C
:10134000009A10460EF040FDD4E700000000022095
:10135000705202200600022006F084B92DE9F04701
:101360000E0001464FF0000004461ABF01EB0608CC
:101370004FF0A009BDE8F0870702A8EB0400451E66
:1013800006F048FA280A09EB4000C0B206F006FA57
:1013900006F090FAE8B206F001FA06F08BFA06F0D1
:1013A00039FAA12006F0FAF906F084FA002006F0D6
:1013B00081F9054606F056FA611CE819CCB2A6423E
:1013C000DAD8BDE8F08710B5044606F023FA200A03
:1013D000A02101EB4000C0B206F0E0F906F06AFA85
:1013E000E0B206F0DBF906F065FA06F013FAA12088
:1013F00006F0D4F906F05EFA002006F05BF9044628
:1014000006F030FA204610BD2DE9F04716000F46D1
:1014100080464FF0000414BF4FF0A00ABDE8F087EB
:1014200008EB0405E00027FA00F000F0FF0906F0E1
:10143000F1F9280A0AEB4000C0B206F0AFF906F055
:1014400039FAE8B206F0AAF906F034FA484606F08E
:10145000A5F906F02FFA06F005FA0A2016F0AAFB05
:10146000601CC4B2A642DBD8BDE8F08770B50D465B
:10147000044606F0CFF9200AA02202EB4000C0B2D9
:1014800006F08CF906F016FAE0B206F087F906F0DD
:1014900011FA284606F082F906F00CFA06F0E2F995
:1014A000BDE870400A2016F085BB000070B5274CDF
:1014B000254E2DED028B6079DFED258A9FED218A87
:1014C00006EB800090ED000A38EEC00A20EE080A14
:1014D000B7EEC00A13F084FF607906F5C87505EB16
:1014E000800191ED001A05F5C87101EB8001B7EE9E
:1014F000C11A06EB800020EE010BB7EEC00B81EDA8
:10150000000A90ED000A38EEC00A20EE080AB7EE95
:10151000C00A13F00DFF607905EB800191ED001A10
:1015200005F5487101EB8001B7EEC11A401C20EEB1
:10153000010BB7EEC00B81ED000A6071BDEC028BB0
:1015400070BD000035FA8E3C9C70022070000220B5
:101550000000B443000000000B4A1078052818BFB3
:1015600070470A489FED0A1B0179407901EB002082
:10157000400800EE100AB8EE400B20EE010BB7EE6B
:10158000C00B82ED020A7047700002200470022036
:10159000000000000000903F0B4A1078072818BF99
:1015A00070470A489FED0A1B8179C07901EB002042
:1015B000400800EE100AB8EE400B20EE010BB7EE2B
:1015C000C00B82ED030A70477000022004700220F5
:1015D000000000000000903F1C4A1078032802D150
:1015E0001B49C978917091781A4B012925D028BFE1
:1015F000072898BF70475078884288BF7047D2ED5F
:10160000030A92ED020A491E70EEC01A00EE901A0B
:10161000411EF8EEE00A81EEA01A00EE901A117950
:10162000F8EEE00A03EB8103491C401C01EE200A9E
:1016300083ED000A117150707047107992ED020A23
:1016400003EB800080ED000A70470000700002206C
:10165000047002209C700220FEE700002DE9F0419A
:101660001D4E0027776000F091F8378000257780C5
:10167000B760F7607761B7613761FEF785FE0024D8
:10168000804677613088401C3080708810B900F047
:1016900095F8B0607088401C708000F057F8706951
:1016A0000544601C0404240CEBD0C6E904574046F2
:1016B000B761FEF76DFEFEF767FE044600F036F8F0
:1016C000064810210CF008FD00F040F82046BDE867
:1016D000F041FEF75DBE0000580102205C79022057
:1016E00070B5FEF751FE084D6C69FEF751FE286992
:1016F00084428CBF241A0024FEF746FE0021696153
:10170000FEF746FE204670BD5801022070B5FEF778
:101710003BFE054DAC69FEF73BFE286984428CBF59
:10172000201A002070BD00005801022010B5064CA0
:101730002088401C2080608810B900F03FF8A0602D
:101740006088401C608010BD5801022010B50B4C11
:101750006088401E0004000C608018BF10BD00F0BF
:101760002DF8E060A168401A6169814238BF60616C
:10177000A169814238BFA06110BD0000580102205C
:1017800001494860704700005801022010B503F07D
:101790007DFD08490A6842F080720A60064900220D
:1017A0004A600A6842F001020A60BDE81040FFF793
:1017B000E7BF0000FCED00E0001000E001484068D9
:1017C00070470000001000E04A1E4FF0FF0C92B27C
:1017D000634630B424BF0A4C04F580750BD310F86F
:1017E000011B521E81EA0C0192B214F801C08CEA6E
:1017F000030C6B5CF3D230BC4CEA03207047000052
:10180000ECB2020813484DF804ED87B0016841F0CE
:1018100080010160016801F080010591016841F4D7
:10182000807101600068694600F480700590402076
:10183000009001200190029003200390064802F0DE
:101840004DFA082000900548694602F047FA07B0B3
:101850005DF804FB30380240001C024000200240CA
:101860002DE9F0413C4F80460024386820F0C0004C
:101870003860386838601E2016F0D8F9374E0025D9
:1018800000224021304602F04AFB022016F0CEF939
:1018900001223046402102F042FB60060821040E7E
:1018A000384602F033FB00281CBF601CC4B2681C21
:1018B000C5B2082DE4D3B8F1000F4FF000024FF08D
:1018C0004001304624D002F02AFB386820F0C000E6
:1018D0003860386840F040003860022016F0A6F901
:1018E00000223846082102F01AFB022016F09EF969
:1018F00001223046402102F012FB022016F096F938
:1019000000223046402102F00AFB2046BDE8F0816B
:1019100002F005FB386820F0C0003860386840F0FD
:1019200040003860022016F081F901223846082173
:1019300002F0F5FA022016F079F901223046402132
:1019400002F0EDFA022016F071F900223046402133
:1019500002F0E5FAD9E7000000200240001C024036
:101960002DE9F0411C4F0546386820F0C000386072
:10197000386840F040003860184E00224021304660
:1019800002F0CDFA022016F051F9002415F0800F74
:1019900005D001223846082102F0C1FA04E00022F5
:1019A0003846082102F0BBFA68060122050E3046CF
:1019B000402102F0B4FA022016F038F90022304635
:1019C000402102F0ACFA022016F030F9601CC4B2DB
:1019D000082CDBD3BDE8F08100200240001C02404F
:1019E00070B5134C206820F0C0002060206840F0E3
:1019F0004000206001222046082102F090FA0D4D9F
:101A000001224021284602F08AFA1E2016F00EF923
:101A100000222046082102F082FA022016F006F980
:101A20002846BDE870400022402102F078BA00004C
:101A300000200240001C024010B5104C206820F02D
:101A4000C0002060206840F0400020600C48012267
:101A5000402102F064FA1E2016F0E8F80022204629
:101A6000082102F05CFA022016F0E0F8012220467C
:101A7000BDE81040082102F052BA000000200240E8
:101A8000001C024070B5284E0024306820F0C000D1
:101A900030603068306001220821304602F03FFAA1
:101AA000224D01224021284602F039FA022016F088
:101AB000BDF80821304602F029FA00282CD0601C1D
:101AC000C4B2FA2C1FD93068344620F0C000306010
:101AD000306840F04000306001222846402102F08A
:101AE0001EFA1E2016F0A2F800222046082102F05D
:101AF00016FA022016F09AF801222046082102F078
:101B00000EFA012070BD022016F090F80821304630
:101B100002F0FCF90028D2D100222846402102F030
:101B2000FEF9002070BD000000200240001C0240B1
:101B300070B4BFF34F8FBFF36F8F18490020086058
:101B4000174D296841F400312960BFF34F8FBFF36F
:101B50006F8F14490860BFF34F8F081F006843F66A
:101B6000FF76114AC0F34E3CC0F3C90406EA4C119B
:101B7000204641EA80731360401EFAD2BCF1010C8A
:101B8000F4D2BFF34F8F286840F480302860BFF351
:101B90004F8FBFF36F8F70BC7047000050EF00E0B5
:101BA00014ED00E084ED00E060EF00E010B5806B24
:101BB000816C496D022906D0012180F83510C16C75
:101BC00041F04001C16401F0ADFD10BD2DE9F843C5
:101BD00080462A489C460F46089B1646016841F4F9
:101BE000800101600068264C00F480000090A4F1A0
:101BF00050008464A0632268106820F01000106018
:101C00000025204820604FF00070C4E90105401312
:101C1000E560C4E904300011C4E906C04002206256
:101C2000042060620120C4E90A052046256301F012
:101C30001DFF204601F05CFF134984F83450A7B122
:101C40003B4642462046009601F0BFFE20680168F0
:101C500041F01001016003220221392002F0D2FB81
:101C6000BDE8F843392002F0C1BB01B0334642461B
:101C70000348BDE8F04301F0E9BF000030380240FE
:101C8000B85A02202864024028000550014801F09B
:101C90006BBD0000685A022010B5104C20210E4880
:101CA00020600020C4E90101E06020616061A06162
:101CB000204601F0B1FD2068C16821F01E01C1601D
:101CC0002068C16841F00101C1602068016841F4E9
:101CD0008041016010BD000000000550685A0220DC
:101CE0000021084610B50BF08DFA0BF057FD0648A1
:101CF0000068016841F0010101600448016841F099
:101D00000101016010BD0000B85A0220000005501A
:101D1000274870B5274B0068DFF89CC0274C9842D5
:101D2000274A04D92749096801F4006105E06045A4
:101D300032D92549096801F40061002908BF70BD46
:101D40004FF40061984288BF204803D8604588BF9F
:101D50001F4828D901601F48406880471E4900205D
:101D60000860BFF34F8F081F006843F6FF741B4ADB
:101D7000C0F34E3CC0F3C90504EA4C11284641EAC1
:101D800080731360401EFAD2BCF1010CF4D2BFF391
:101D90004F8FBFF36F8F70BDA0428CBF5168116829
:101DA00001F40061C9E7A0428CBFD1609160D2E725
:101DB000B85A022058640240B8600240586002409D
:101DC0000060024004640240006402400C6402406F
:101DD000086402404C00022084ED00E074EF00E053
:101DE0001B4830B4DFF86CC01B4B00681B4C1C4A0E
:101DF000604504D91B49096801F0006105E098427B
:101E00001AD91949096801F00061002904BF30BCE2
:101E100070474FF00061604588BF144803D898426E
:101E200088BF13480FD9016012480068002804BF1A
:101E300030BC704730BC0047A0428CBF516811686D
:101E400001F00061E1E7A0428CBFD1609160EBE757
:101E5000FC78022058640240B8600240586002409A
:101E60000060024004640240006402400C640240CE
:101E700008640240E000022070470000114A107818
:101E8000092898BF704710F0010F08BF70470E4B2C
:101E9000B5EE001B1918185C11F8011C01EB0020AD
:101EA00000EE100AD07803F50A71B8EE400B01EB92
:101EB0008001401C20EE010BB7EEC00B81ED000A43
:101EC000D07070477000022004700220C268D1E90F
:101ED000002342EA03220B89097B1B0443EA0161C8
:101EE0001143C160002070478268D1E9002342EAB3
:101EF00003220B89097B1B0443EA016111438160C2
:101F0000002070474DF8044D02680D4B1A40D1E98E
:101F1000013C43EA0C03D1E903C44CEA040C43EA54
:101F20000C03D1F814C0896943EA4C2343EA4131D8
:101F3000114341F0080101605DF8044B0020704737
:101F40008101F0FFB3F5804F30B418BF6FF07041DE
:101F500004D040F8221030BC0020704750F82230E6
:101F6000DFF824C08D8903EA0C03D1E900C44CEAF0
:101F7000041C8C688969240244EA05444CEA040C78
:101F80004CEA01011943E4E70000F0CF70B4D1F846
:101F900000C050F82C201B4BD1E903561A40D1E960
:101FA000014335431C432C434D692C438D692C431D
:101FB000CD692C430D6A2C434D6A2C438D6A2C430A
:101FC000CD6A2C430D6B2C438D6B2C434D6B2C43F6
:101FD0002243082B08BF42F0400240F82C200A6B35
:101FE000B2F5801F05D10A684AB1026842F4801236
:101FF00002600A681AB10268496B1143016070BC43
:10200000002070478004C0FF00EB820270B4536868
:102010004FF07E46D1E900C48D8903F040434CEA7D
:10202000041C8C68240244EA05440D8A4CEA04042A
:10203000DFF834C00CEB05552C430D7D06EB056530
:102040002C438D692C4323435360026812F4801F94
:1020500007D04268098A22F470020CEB0151114347
:10206000416070BC002070470000F0FF4DF8044D47
:10207000D1E901320C681343D1E903C24CEA0202F0
:102080001A434B6913438A69012C046843EA020C22
:10209000CB690A6A496A08D04CEA03031A43114320
:1020A0006FF30E04214301600BE024F4F8441A435B
:1020B00021430A43416802606FF30E014CEA0101BB
:1020C00041605DF8044B00207047426942EA4101DB
:1020D000416100207047F8B514460546D1E9000279
:1020E0006FF01F0310438A68C96803EB421242EA8B
:1020F000412108430090286101F016FF0646A869B7
:1021000010F0200F0ED0B4F1FF3F07D024B101F042
:102110000BFF801BA04201D90320F8BDA86910F075
:10212000200FF0D10020F8BD2DE9F001D1F804C056
:102130006FF00F050B682C015B1E05EB0C1C43EACE
:102140000C03D1F808C04FEA0428270304EB0C2C39
:1021500043EA0C050B8A2604CC68012A826808EB46
:10216000034C8B8A097E07EB035306EB01610DD00C
:10217000361306EB04342C4344EA0C0C4CEA0303FC
:10218000194302F070421143816012E0240322F4EB
:102190007042A4F58054234322F470021A43C368AA
:1021A00045EA0C0C826003F070434CEA01011943CC
:1021B000C160BDE8F00100207047000030B539482B
:1021C00087B0016841F080010160016801F0800181
:1021D0000691016841F480710160006800240125C6
:1021E00000F4807006908020CDE90104032001A94D
:1021F000CDE903502C4801F071FD2802CDE901051D
:102200002A4D01A9284601F069FDFFF7FBFA0022DB
:102210002846A91501F083FE142015F0CBFC0122FD
:102220002846110201F07BFE322015F0C3FC01228A
:10223000694600208DF8004000F042F9012269460D
:10224000A42000F03DF91620694601228DF8000017
:10225000802000F035F90C20694601228DF800003D
:10226000882000F02DF902226946A12000F026F80E
:102270009DF80000302804BF9DF80110032907D005
:102280009DF8011001291FBF0229012007B030BDB0
:10229000C9B201EB002106A0FEF73CF907B000200F
:1022A00030BD000030380240001C024000200240D7
:1022B0004354502049443A25780D0A002DE9F04155
:1022C00015460E460446FFF78BFB7020FFF748FBD0
:1022D000FFF7D8FBE0B2FFF743FBFFF7D3FBFFF7B5
:1022E0007FFB7120FFF73CFBFFF7CCFB0024002DA8
:1022F00088BF6F1E0AD9BC4214BF01200020FFF71F
:10230000AFFA3055601CC4B2AC42F4D3BDE8F04122
:10231000FFF792BB2DE9F14FDFF890B10025DFF810
:10232000949182B02C469BF80000401CC1B26048DA
:102330008BF80010A0FB0120C008404200EB800099
:1023400011EB400001D00A297ED20122022002A90D
:10235000FFF7B4FF9DF8080010F00F0F74D000F0E5
:102360000F0006287FD2FF214FF0000A01FA00F08B
:10237000C0B2C04340F0C000A9F834000120B9F851
:102380003410A84001425CD04B480426E84610F8BF
:102390001540FFF725FB7020FFF7E2FAFFF772FB0D
:1023A000E0B2FFF7DDFAFFF76DFBFFF719FB7120D5
:1023B000FFF7D6FAFFF766FB0024771EBC4214BF76
:1023C00001200020FFF74CFA08F80400601CC4B29A
:1023D000B442F3D3FFF730FB99F844009DF80010A6
:1023E00010F0010F9DF8010001F00F0100EB012139
:1023F0000CD009EB450001849DF802209DF80310E4
:1024000002F00F0201EB022181810EE02B480088CF
:10241000411A09EB450081819DF802209DF80310C7
:1024200002F00F0201EB022101849DF8000000F090
:10243000F000802805D009EB4500A0F820A0A0F806
:102440000CA0681CC5B200E00DE0052D96D3B9F8CC
:102450000C100124002902BFB9F8200000288DF8D3
:1024600008A08BF800A09DF8080010F01F0F11D1F4
:10247000B9F8340010F0800F18BF20F0800007D1A9
:102480004FF6FF71A9F80C1000F0E000A9F8201039
:10249000A9F834009BF80000F02884BF0A208BF8CC
:1024A0000000204603B0BDE8F08F0000810002204C
:1024B000CDCCCCCC8C00022042B10208645B02205F
:1024C0002DE9F041002716460D460446FFF788FA2D
:1024D0007020FFF745FAFFF7D5FAE0B2FFF740FAB0
:1024E000FFF7D0FA0024002E0AD9285DFFF738FA4A
:1024F000FFF7C8FA070003D1601CC4B2B442F4D39A
:10250000FFF79AFA3846BDE8F08100002DE9F04760
:102510002C4E002782B089460DF104080546BA46C4
:10252000B0790024002815D9CDF8008000217088EA
:102530004A468308B07900FB05F00CF0F3F9708887
:10254000BDF80410B1EB900F04D1601C84B2B079D7
:10255000A042E9D8B079A04203D102B00020BDE882
:10256000F08728460BF07EFF20B117A03946FDF713
:10257000D1FF1BE0B9F1FF3F18D0ADF804A0B0794E
:10258000002813D970880022BDF804108308B079A0
:1025900005FB001011460CF03BFBBDF80400401C8D
:1025A00080B2ADF80400B1798142EBD8781C87B2D3
:1025B000032FB5D30AA02946FDF7ACFF02B00120D6
:1025C000BDE8F087745C02206572726F72206572DC
:1025D00061736520626C6F636B3A25640D0A0000BD
:1025E00062616420626C6F636B20636865636B6516
:1025F000643A25640D0A00002DE9F04FDFF814B1AC
:102600008A4691461D4683B09BF80610B0FBF1F256
:10261000B0FBF1F801FB12000190404600F0E8F831
:102620000746BBF80A00874203D903B00120BDE882
:10263000F08F9BF806000024002844D901988442BA
:1026400018D3BDB1BBF80200A0EB0A00A8422CBF12
:10265000AEB286B200969BF806004B46524607FB88
:10266000004108FB00400BF05BFDAD1B4FF0000A82
:10267000B14407E09BF8060007FB004108FB00405F
:102680000BF046FEC8B14FF0AA3000909BF8060050
:10269000042300216A4600FB07F00CF0E5FA9BF8E2
:1026A0000600042300216A4600FB07F0401C0CF0E2
:1026B000DBFA012000F030F8AFE7601C84B29BF831
:1026C0000600A042BAD8C0B2A0421FD1CC216A46AF
:1026D00001238DF8001000FB07F019460CF0C4FA36
:1026E00040460BF0BFFEBBF80A200020002A88BF3E
:1026F000DBF814100AD931F81030434502D121F823
:10270000107003E0401C80B28242F4D803B0002075
:10271000BDE8F08F745C0220F8B52E4D064600210E
:102720006889002888BF4FF6FF7006D96A6922F8C9
:1027300011006A89491C8A42F8D80020A881044601
:102740006889002821D9A879042300216A4600FB62
:1027500004F00CF01FF99DF80000FF280DD106B31E
:10276000A879012300216A4600FB04F0401C0CF00C
:1027700011F99DF80000FF2813D017A02146FDF79E
:10278000C9FE6889641CA042DDD86989002000293F
:1027900088BF6A6918D932F810308B4211D3E881AA
:1027A00012E09DF803109DF8020000EB01216889FA
:1027B000884284BF686920F81140A889401CA8811C
:1027C000DFE7401C8842E6D3E889642834BF022052
:1027D0000020F8BD745C022062616420626C6F634B
:1027E0006B20696E6465783A25640D0A000000006C
:1027F00070B5114E0446114D70892968401E8842FB
:1028000038BF286004F00101286800F019F8B0F121
:10281000FF3F0CD170892968401E884209D904F015
:102820000101286000F00CF8B0F1FF3F01D02860F2
:1028300070BD4FF0FF3070BD745C02206800022054
:10284000F8B50F460021441C00911CBF01250D4E18
:1028500012D025EA0400B8420CD1B079611E0423DD
:102860006A4600FB01F000210CF094F80098B0F1EA
:10287000FF3F04D0641EECD14FF0FF30F8BD601E66
:10288000F8BD0000745C02202DE9F047544D00268D
:1028900082B0344601274FF00208AE8168890028D3
:1028A00088BF4FF0AA3944D98DF800600123A87978
:1028B00000216A4600FB04F00CF06CF89DF8000063
:1028C000FF2818BF404601D080B12EE0A87901232F
:1028D00000216A4600FB04F0401C0CF05BF89DF8F8
:1028E0000000FF280CBF30463846EDE720460BF0CD
:1028F000B9FDB8B13BA02146FDF70CFECDF8009024
:102900000423A87900216A4600FB04F00CF0ACF91E
:10291000A879042300216A4600FB04F0401C0CF057
:10292000A3F902E0A889401CA8816889641CA04220
:10293000BAD8A9892FA0FDF7EDFDA88964283EBF6C
:10294000012002B0BDE8F087C0EB40102E49002402
:1029500000EB40000196A1FB00104FEA501A688975
:10296000002834D98DF800600123A87900216A4637
:1029700000FB04F00CF00EF89DF80000FF2818BFD3
:10298000C14603D0B9F1000F1DD10FE0A979012391
:102990006A4601FB04F00021401C0BF0FBFF9DF890
:1029A0000000FF280CBFB146B946EBE7A879022327
:1029B00001AA194600FB04F00CF056F90198401CDE
:1029C0000190504503D06889641CA042CAD80120F8
:1029D000FFF7A2FE002818BF022002B0BDE8F08772
:1029E000745C022042616420626C6F636B3A256400
:1029F0000D0A0000676F6F645F626C6F636B6E75CA
:102A00006D3A25640D0A00001F85EB5110B50BF0DF
:102A100053FD002821D1194C616900291CBF0020F9
:102A200019F002FC60894100002019F035FC60615A
:102A300061894900FEF7AEF9606970B10120FFF7C6
:102A40006BFE60B10EA0FDF765FDFFF71DFF90B1B5
:102A500011A0FDF75FFD022010BD012010BD6189AE
:102A600012A0FDF757FDA18916A0FDF753FDE189DE
:102A700019A0FDF74FFD002010BD0000745C02207E
:102A8000666F726D6174206E616E6420666C617336
:102A9000682E2E2E0D0A0000666F726D617420661E
:102AA00061696C6564210D0A00000000746F746137
:102AB0006C20626C6F636B206E756D3A25640D0A35
:102AC00000000000676F6F6420626C6F636B206EA4
:102AD000756D3A25640D0A0076616C696420626C3C
:102AE0006F636B206E756D3A25640D0A000000005F
:102AF0002DE9FF4F5FEA0309144681B082464FF08B
:102B000000067DD0DFF848C1BCF802009CF8062022
:102B1000B0FBF4F101FB02F502998B19B3FBF5F15F
:102B2000BCF80E508D4232BF4FF6FF71DCF81450E6
:102B300035F81110BCF80A508D4203D805B00120B9
:102B4000BDE8F08FB0FBF4FC0CFB02FCB3FBFCF522
:102B50000CFB153303FB04F3B3FBF0FC01FB02C7D2
:102B6000B3FBF0F100FB1138A0EB0800B0FBF4F070
:102B700085B2A9EB0600854288BF85B205FB04FB40
:102B80001FFA88F152461FFA8BF338460BF05EFDB0
:102B9000032809D11FFA8BF352461FFA88F13846F1
:102BA0000BF054FD032807D0042818BF002845D097
:102BB00005B00220BDE8F08F1FFA88F15B4652464F
:102BC0003846FFF719FDDFF888804FF0FF3198F89D
:102BD0000600B7FBF0F0FFF799FC80B998F8060003
:102BE0000021B7FBF0F0FFF791FC834698F8060050
:102BF000B7FBF0F00BF036FCBBF1000F1ED000E08D
:102C000022E098F80600042300216A46B7FBF0F79B
:102C10004FF0AA30009098F8060000FB07F00CF087
:102C200023F898F80600042300216A4600FB07F009
:102C3000401C0CF019F80120FFF76EFD04FB05AAFB
:102C40002E444E45FFF45EAF05B00020BDE8F08F86
:102C5000745C02202DE9FF4F85B015465FEA030B37
:102C60004FF000084FF0FF3003907CD0DFF838C100
:102C7000BCF802009CF80620B0FBF5F101FB02F461
:102C8000069901EB0803B3FBF4F1BCF80E408C424B
:102C900032BF4FF6FF76DCF8144034F81160BCF810
:102CA0000A10B14203D809B00120BDE8F08FB0FB93
:102CB000F5F101FB02F1B3FBF1FC01FB1C3101FB5F
:102CC00005FABAFBF0F106FB02110291BAFBF0F132
:102CD00000FB11A9ABEB08010491A0EB090080B245
:102CE000B0FBF5F08CB2ADF80400A04298BF0446EA
:102CF00004FB05F701A800901FFA89F102984FF034
:102D0000FF32C7F38F030BF00DFE18B109B002209C
:102D1000BDE8F08FBDF80400B0EB970F18D1BBB23F
:102D2000059A1FFA89F102980BF0B0FE80B903985A
:102D3000B0422ED0CC208DF800001B4801236A46FB
:102D40001946807900FB06F00BF08EFF039600B366
:102D500015488179408801FB00F0A0EB0A00B0FB28
:102D6000F5F080B200E01BE00499ADF804008CB2ED
:102D7000844228BF044604FB05F71FFA89F1059A2F
:102D800002983B46FFF738FC18B109B00320BDE8B4
:102D9000F08F0599A044D84539440591FFF466AFFA
:102DA00009B00020BDE8F08F745C02202DE9F041ED
:102DB000534888B0016841F080010160016801F06A
:102DC00080010791016841F480710160006800246E
:102DD0000326DFF8308100F4807007908025694673
:102DE00001274046CDE90054CDE9027600F076FF98
:102DF00068006946CDE90007434F384600F06EFF92
:102E0000FEF700FD00223846690001F088F80A202C
:102E100014F0D0FE01223846110201F080F80A2099
:102E200014F0C8FECDE90054CDE90246694640469B
:102E300000F054FF642014F0BDFE042248F240105C
:102E400005A900F07BF805A98DF818402FA0FDF723
:102E500061FB31A105A8FDF7BFFF00281EBF0120BF
:102E600008B0BDE8F0810220012205A98DF8140008
:102E700048F2400000F08AF9012248F2470005A913
:102E800000F05CF89DF8141060292AD224A0FDF708
:102E900041FB28488088A0F5AA41103921D18DF83E
:102EA0001C4001218DF81D10002023499DF81C2095
:102EB0000B5C401CC0B2B8281A448DF81C20F5D316
:102EC000D0B21D49C043401C8DF81C00B82248F206
:102ED000470000F05BF9022248F2FF0007A900F06A
:102EE00055F90A2014F066FE012248F2400005A9B7
:102EF0008DF8144000F04AF908B00020BDE8F081D8
:102F000030380240001C0240002002404354502050
:102F100049443A25730D0A00393134370000000066
:102F200044656661756C74205665723A25640D0AB5
:102F300000000000645B02204CB102082DE9F04162
:102F400015460E460446FEF74BFD2820FEF708FD09
:102F5000FEF798FD200AFEF703FDFEF793FDE0B2B1
:102F6000FEF7FEFCFEF78EFDFEF73AFD2920FEF788
:102F7000F7FCFEF787FD0024002D88BF6F1E0AD9DD
:102F8000BC4214BF01200020FEF76AFC3055601CD3
:102F9000C4B2AC42F4D3BDE8F041FEF74DBD000031
:102FA0002DE9F14F744E0024744982B0744DA2464D
:102FB0003078401CC0B23070A1FB0021C9084942E2
:102FC00001EB810110EB410101D00A287AD20122E4
:102FD00048F24E1002A9FFF7B1FF9DF808004FF02C
:102FE000000910F0800F0BD000F00F00062807D268
:102FF000012248F24E1001A98DF8049000F0C6F8A5
:103000009DF8080010F00F0F5CD000F00F000628AC
:1030100058D2FF21DFF86CB1DFF86C814FF0010A64
:1030200001FA00F0C0B28DF8040095F83470C04386
:1030300040F0C000A886A889A882288C2885A88E80
:103040000AFA04F1084250D03BF814000422694601
:10305000FFF774FFB8F80400A0F5AA41103904D0B6
:10306000A0F58641423917D03FE095F8440010F0B2
:10307000010F16D09DF801109DF8000000EB012112
:1030800005EB440001849DF803209DF8021001EB3C
:103090000221C1F5487127E095F8440010F0010FB6
:1030A00011D09DF801109DF8000000EB012105EB07
:1030B000440081819DF803209DF8021001EB02215C
:1030C000018412E03AE09DF801109DF8000000EB49
:1030D000012105EB440001849DF803209DF80210B6
:1030E00001EB0221C1F588718181601CC4B2052CFD
:1030F000A5D3A9894FF0010AB8F8002028468A42D2
:1031000007D3018CB8F802208A4228BF86F80090C5
:1031100014D29DF8081001F00F01012906D9C189C8
:103120008181418C298486F8009007E0818A818121
:10313000018D018480218DF80810AF869DF808006C
:1031400000F08F0080280DD1A88E10F0800F18BFDE
:1031500020F0800005D14FF6FF71A98100F0E0005A
:103160002984A8863078F02884BF0A203070504621
:1031700003B0BDE8F08F000082000220CDCCCCCCA3
:103180008C00022004B20208645B02202DE9F041A9
:10319000002715460E460446FEF722FC2820FEF7BF
:1031A000DFFBFEF76FFC200AFEF7DAFBFEF76AFC96
:1031B000E0B2FEF7D5FBFEF765FC0024002D0AD92E
:1031C000305DFEF7CDFBFEF75DFC070003D1601C10
:1031D000C4B2AC42F4D3FEF72FFC3846BDE8F08110
:1031E0002DE9F041504888B0016841F0800101604C
:1031F000016801F080010791016841F4807101606C
:1032000000680125DFF82481802600F48070079093
:103210000024009603270397CDE9014569464046FF
:1032200000F05CFD28026946CDE90005404D2846C6
:1032300000F054FDFEF7E6FA00222846A91500F03A
:103240006EFE0A2014F0B6FC01222846110200F09E
:1032500066FE0A2014F0AEFCCDE90064CDE9024719
:103260006946404600F03AFD642014F0A3FC0422B5
:1032700048F2401005A900F075F805A98DF818402E
:103280002CA0FDF747F92FA105A8FDF7A5FD002803
:103290001EBF012008B0BDE8F0810220012205A96F
:1032A0008DF8140048F24000FFF770FF012248F249
:1032B000470005A9FFF742FE9DF81410412924D2CA
:1032C00022A0FDF727F98DF81C4001218DF81D1073
:1032D000002023499DF81C200B5C401CC0B2B8287C
:1032E0001A448DF81C20F5D3D0B21D49C043401CB0
:1032F0008DF81C00BA2248F2470000F08BF9022238
:1033000048F2FF0007A900F085F90A2014F052FCEA
:10331000012248F2400005A98DF81440FFF736FF5E
:1033200008B00020BDE8F08130380240001C0240A7
:10333000002002404354502049443A25730D0A0DA1
:103340000A00000039323731000000004465666130
:10335000756C74205665723A25640D0A00000000F1
:103360000EB202082DE9F04115460E460446FEF75E
:1033700037FB2820FEF7F4FAFEF784FB200AFEF75D
:10338000EFFAFEF77FFBE0B2FEF7EAFAFEF77AFB10
:10339000FEF726FB2920FEF7E3FAFEF773FB002475
:1033A000002D88BF6F1E0AD9BC4214BF0120002027
:1033B000FEF756FA3055601CC4B2AC42F4D3BDE8F7
:1033C000F041FEF739BB00002DE9F14F82B04FF01C
:1033D000000B8DF800B05C46DFF82492DFF82882FD
:1033E00099F80000401CC1B2864889F80010A0FB83
:1033F0000120C008404200EB800011EB400001D0EA
:103400000A297CD2012248F24E1002A9FFF7AAFF36
:103410009DF8080010F0800F0BD000F00F000B2873
:1034200007D28DF800B00122694648F24E1000F034
:10343000F1F89DF8080010F00F0F60D000F00F00B9
:103440000B285CD24FF6FF71B8F834A001FA00F0F7
:10345000C04340F0C000A8F83400B8F80C00A8F849
:103460001E00B8F82000A8F832008DF800B09DF8D2
:1034700000000A2874D2B8F834109DF8002001200A
:103480009040014263D061489DF80010062501AFCD
:1034900030F81140FEF7A4FA2820FEF761FAFEF793
:1034A000F1FA200AFEF75CFAFEF7ECFAE0B2FEF75A
:1034B00057FAFEF7E7FAFEF793FA2920FEF750FADB
:1034C000FEF7E0FA00246E1EB44214BF0120002073
:1034D000FEF7C6F93855601CC4B2AC42F4D3FEF70F
:1034E000ABFA98F8440010F0010F18D09DF80700CF
:1034F0009DF8061001EB00209DF8001000E05CE054
:1035000008EB410108849DF805109DF8040000EBCC
:1035100001209DF8001008EB4101888117E09DF81B
:1035200007109DF8060000EB01209DF80010C0F583
:10353000487008EB410188819DF805109DF8040052
:1035400000EB01209DF8001008EB410108849DF874
:103550000000401C8DF800009DF800000A288AD366
:103560002B480124B8F80C1002888A4207D3B8F817
:1035700020104088884228BF89F800B01DD29DF8ED
:10358000080000F00F0001280AD9B8F80E00A8F8CA
:103590000C00B8F82200A8F8200089F800B00CE070
:1035A000B8F81E00A8F80C00B8F83200A8F82000FF
:1035B00080208DF80800A8F834A09DF8080000F0DD
:1035C0008F00802811D1B8F8340010F0800F18BF98
:1035D00020F0800007D14FF6FF71A8F80C1000F41E
:1035E0006040A8F82010A8F8340099F80000F028EE
:1035F00084BF0A2089F80000204603B0BDE8F08FA0
:1036000083000220CDCCCCCC8C000220C8B20208B2
:10361000645B02202DE9F041002715460E46044662
:10362000FEF7DEF92820FEF79BF9FEF72BFA200AB9
:10363000FEF796F9FEF726FAE0B2FEF791F9FEF7EB
:1036400021FA0024002D0AD9305DFEF789F9FEF732
:1036500019FA070003D1601CC4B2AC42F4D3FEF7E0
:10366000EBF93846BDE8F08130B413468C46044689
:1036700012F0070018BF012000EBD300217810FBE7
:1036800003F08129C2B2607828BF402825D3FF28E3
:1036900018BFFF2921D07F2834BF40384138C4B239
:1036A000A1F18100C0B20C2BC0EB401101EB8010E6
:1036B0001B4904EB400000FB02F01CD0102B21D072
:1036C000182B26D0202B1CBF30BC7047D1F82110FE
:1036D0000144604630BC11F075BA0023002A8EBF49
:1036E000002030BC70470CF8010B591CCBB29A4239
:1036F000F9D830BC7047D1F8091030BC014460469D
:1037000011F060BAD1F8111030BC0144604611F0DC
:1037100059BAD1F8191030BC0144604611F052BAC0
:1037200020370520704700000A48012110B50170BC
:103730000021094801800121084800F0ECFB0848FD
:103740000178491C017007480068C16841F0010117
:10375000C16010BD000002201000022000040240E1
:103760004C000220685A02202DE9F041044600680E
:1037700005694FF00406274F15F0040F0BD0466182
:10378000E06C40F00200E06484F83560A06C0765EE
:10379000A06C00F058F915F0020F0DD0216802203E
:1037A0004861E06C40F00100E06484F83560A06C92
:1037B0000765A06C00F047F915F0100F05D02168DF
:1037C00010204861204600F085F815F0080F05D05C
:1037D000216808204861204600F0F6F815F0010F36
:1037E00008BFBDE8F0812068016811F0020F03D026
:1037F000C16821F01E01C1602068C16821F001018B
:10380000C1602168012048612046FFF78DFFBDE8B7
:10381000F0810000AD1B0008002804BF01207047A4
:1038200010B5044690F83500002804BF204600F08B
:1038300053F8022084F8350020680168244A1140BA
:103840000160616960680843D4E9031211430843C9
:10385000A1680843A1690843216A0843616A0843D3
:10386000A16A0843E16A0843216B014320680268AA
:1038700011430160606810281DD14FF47F42617FC1
:10388000207F4FF07F4392FAA2F293FAA3F3B2FAA9
:1038900082F2B3FA83F391404FF47F020843A17F91
:1038A00092FAA2F2B2FA82F29140E27F9A40114378
:1038B0000843216888612068C16841F01E01C16029
:1038C0000020E064012084F83500002010BD0000D5
:1038D00007F0E0FF7047000034484DF804ED87B072
:1038E000016841F001010160006800F001000590ED
:1038F0002F48016841F001010160016801F00101F8
:103900000591016841F002010160016801F00201C6
:103910000591016841F004010160016801F00401B2
:103920000591016841F008010160016801F008019A
:103930000591016841F0800101600068694600F06E
:10394000800005904020009002200190012002900C
:10395000032003900D200490164800F0BFF94FF4A7
:10396000607000901448694600F0B8F94FF43C606C
:1039700000901248694600F0B1F908200090104804
:10398000694600F0ABF94FF4807000900D4869462D
:1039900000F0A4F902224E20114600F033FD4E2023
:1039A00000F024FD07B05DF804FB0000343802404D
:1039B000303802400000024000040240000802408B
:1039C000000C0240001C0240704770B484684FF045
:1039D000000C039D802C13D090F83440012C02BFC2
:1039E000022070BC7047012480F8344090F83540C4
:1039F000012C18BF4FF0020C08D070BC6046704715
:103A00004FF4807141654FF0010CF6E7022480F815
:103A100035400468266846F48026266004682361E1
:103A200003685D608368402B036803BF9A60026887
:103A3000D16099601CBF0168CA600068016841F0EC
:103A400001010160D9E790F83510022903D08021E7
:103A5000416501207047052180F835100068016834
:103A600021F001010160002070470000002804BF20
:103A70000120704790F83510022904BF02207047DA
:103A800001680A6822F001020A6001684FF0000C28
:103A9000C1F800C00168C1F804C00168C1F808C0DD
:103AA0000168C1F80CC00168C1F810C0212102688A
:103AB000516101680C4BCAB2103A6FF30901A3FBC4
:103AC00002320A4B1209032A9B5CC36588BF091D99
:103AD0003F2281659A408A60C0F854C080F835C0A2
:103AE00080F834C000207047ABAAAAAA1655020875
:103AF00070B5044600F018FA002C054604BF0120FA
:103B000070BD0026022084F8346084F835002068F7
:103B1000016821F0010101602068006810F0010FC8
:103B20000FD000F001FA401B052805D92020606560
:103B3000032084F8350070BD2068006810F0010F84
:103B4000EFD1216808683E4A1040D4E901231A43A6
:103B5000D4E9033C43EA0C031A4363691A43A3699B
:103B60001A43E3691A43236A1A431043626A042A18
:103B700003D1D4E90B231A43104308602368586922
:103B80004FF0010C20F00701606A014304283ED188
:103B9000A06AA269014352B1B2F5005F1CD00028AF
:103BA0001CBF012802282CD0032826D02FE020B1EA
:103BB000012807D002280AD029E0E06A10F0807FAF
:103BC0001FD124E0E06AB0F1C07F20D119E0E06AA3
:103BD00010F0807F15D11AE098B1012808D0022892
:103BE0000FD0032804BFE06AB0F1C07F09D00EE017
:103BF000E06A10F0807F04D109E0E06A10F0807F75
:103C000005D04020606584F835C0012070BD596141
:103C100020680C4AC1B210396FF30900A2FB0121E0
:103C2000094A09090329525CE26588BF001D3F214A
:103C3000A06591408160666584F835C0002070BD44
:103C40003F8010E0ABAAAAAA1655020830B490F83B
:103C500034C00024BCF1010F02BF022030BC704709
:103C60004FF0010C80F834C090F835504FF0000C44
:103C7000012D1CBF80F834C0022402D0204630BC85
:103C80007047022580F83550C0F854C0D0F800C005
:103C9000DCF8005025F48025CCF80050D0F800C0A6
:103CA000CCF804308368402B036803BF9A60026835
:103CB000D16099601CBF0168CA600068016841F06A
:103CC00001010160DAE731B500F02EF9044600F099
:103CD0002BF90099001B8842F9D338BD2DE9F84F24
:103CE000DFF81C920022DFF814820F2709F1040A82
:103CF0004FF0010E0B680EFA02F52B40AB4240F07C
:103D0000F780D1F804C0BCF1020F18BFBCF1120F4C
:103D100012D14FEAD20C00EB8C0CDCF82060540777
:103D2000E40E07FA04FB26EA0B06D1F810B00BFAF2
:103D300004F43443CCF8204006684FEA420C91F872
:103D400004B003240BF0030B04FA0CF4A6430BFAA3
:103D50000CFB4BEA060606604E68012E18BF022EC9
:103D600003D0112E18BF122E11D18668D1F80CB0D5
:103D7000A6430BFA0CFB4BEA06068660466826EA69
:103D800005050E79C6F30016964035434560C568B3
:103D900025EA04048D6805FA0CFC4CEA040CC0F812
:103DA0000CC0D1F804C01CF0805F7CD0D8F800C0F3
:103DB0004CF4804CC8F800C0D8F800C00CF4804C1B
:103DC000CDF800C022F0030C0CF1804505F59835C4
:103DD000D5F808C89407240F07FA04F62CEA06065B
:103DE000A0F1804CBCF5003C48D0A0F1804CBCF563
:103DF000013C08BF4FF0010C40D0A0F1804CBCF555
:103E0000023C08BF4FF0020C38D0A0F1804CBCF54A
:103E1000033C08BF4FF0030C30D0A0F1804CBCF540
:103E2000043C08BF4FF0040C28D0A0F1804CBCF536
:103E3000053C08BF4FF0050C20D0A0F1804CBCF52C
:103E4000063C08BF4FF0060C18D0A0F1804CBCF522
:103E5000073C08BF4FF0070C10D0A0F1804CBCF518
:103E6000083C08BF4FF0080C08D0A0F1804CBCF50E
:103E7000093C0CBF4FF0090C4FF00A0C0CFA04FC83
:103E80004CEA060CC5F808C8D9F800C04C682CEA02
:103E9000030C14F4803F18BF4CEA030CC9F800C0AF
:103EA000DAF800C000E023E04C682CEA030C14F4BC
:103EB000003F18BF4CEA030CCAF800C0114CD4F8FC
:103EC00000C04D682CEA030C15F4801F18BF4CEAA3
:103ED000030CC4F800C00C4CD4F800C04D682CEAA8
:103EE000030C15F4001F18BF4CEA030CC4F800C003
:103EF000521C102AFFF4FEAEBDE8F88F4438024091
:103F0000003C0140083C01400C3C01400069084075
:103F100018BF012070474269514041617047002A33
:103F200008BF0904816170470148006870470000BC
:103F30003400022002480168491C016070470000FB
:103F400034000220074810B5016841F40071016097
:103F5000052000F089FA0F2000F006F800F0C4F9FF
:103F6000002010BD003C024010B5044607484FF445
:103F70007A720068B0FBF2F002F09CFC002221464D
:103F8000501E00F03FFA002010BD0000300002205B
:103F90002DE9F05F044690F8A000012804BF02203C
:103FA000BDE8F09F0125022084F8A05084F8A1000C
:103FB00002EB820000EBC20004EB8003B1E8C11FFA
:103FC0003833A3E8C11F91E8C111203983E8C1113A
:103FD000204609F019FF2068456284F8A1500020AE
:103FE00084F8A000BDE8F09F002804BF01207047BE
:103FF00070B5044690F8A100002520B9204684F849
:10400000A05000F077F8022084F8A10020688169B0
:1040100021F070418161D4E901010843D4E9031220
:1040200011430143206882691143816120688268DD
:104030002F490A408260A08A020420688368D4F86D
:1040400018C043EA0C031A4382602068C2680A4021
:10405000C260A08B02042068C368D4F820C043EA81
:104060000C031A43C260206802690A400261A08CF6
:10407000020420680369D4F828C043EA0C031A43F9
:1040800002612068426911404161A08D01042068ED
:104090004269236B1A431143416194F835000202CF
:1040A00094F8360001042068C36A03F07F43C362BA
:1040B0002068C36A114394F834C043EA0C031943DF
:1040C000C1622068416B41F0040141632068416B8B
:1040D00041F0020141632068816941F00101816181
:1040E000C4F8A450012084F8A100002070BD000095
:1040F00000F800F0354810B586B0016841F08061E5
:104100000160006800F0806005903148016841F46A
:1041100000010160016801F400010591016841F0AE
:1041200002010160016801F002010591016841F09E
:1041300020010160016801F020010591016841F052
:1041400040010160016801F040010591016841F002
:1041500080010160016801F080010591016841F46E
:104160008071016000680324694600F48070059046
:104170002020009001200190CDE902041548FFF7AE
:10418000ADFD4FF480600090022001900020694650
:10419000CDE902040E2004900F48FFF79FFD4FF475
:1041A0000C6000900D486946FFF798FD4FF47E4083
:1041B00000900B486946FFF791FD40F2F7600090D0
:1041C00008486946FFF78AFD06B010BD4438024032
:1041D000303802400004024000140240001802403F
:1041E000001C02400020024070B5044690F8A00078
:1041F0008C46012804BF022070BD0125022084F8EE
:10420000A05084F8A10003EB830000EBC30004EB93
:10421000800000F13801C0F838C0006E6044C1E988
:104220000102C86A10441A46C860204609F0ECFD35
:104230002068456284F8A150002084F8A00070BD79
:1042400070B5044690F8A0008C46012804BF0220F7
:1042500070BD0125022084F8A05084F8A10003EB72
:10426000830000EBC300002604EB800000F138015E
:104270002046C1E9006CC1E90262C1E90AC21A46DE
:1042800009F0C2FD2068456284F8A150002084F83E
:10429000A06070BD134A41781160111D03780A1D9A
:1042A000002B04BF002008601AD043680B60017B1C
:1042B000C37A090741EA0361837A41EAC341437B38
:1042C00041EA8341837B41EA4341C37B41EA0341A5
:1042D000437A41EA0321037A007841EA4301084323
:1042E0001060704798ED00E07047002804BF01207F
:1042F000704770B5044690F8210015460E4628B95F
:10430000002084F82000204600F018F82068211DC5
:10431000FDF7F8FDD4E900023146FDF7E5FDD4E9EB
:1043200000022946FDF7D2FD2068016841F0040132
:104330000160012084F82100002070BD264870B57E
:1043400086B0016841F001010160006800F00100E1
:1043500005902248016841F008010160016801F000
:1043600008010591016841F010010160016801F048
:1043700010010591016841F04001016000680024CE
:104380000325174E00F04000059040206946CDE916
:1043900000040120CDE902053046FFF79FFC7115AE
:1043A00000910C200221CDE90114CDE903500D4804
:1043B0006946FFF793FC4DF633006946029400907E
:1043C0003046FFF78BFC4FF4F060009006486946DA
:1043D000FFF784FC06B070BD383802403038024028
:1043E000000C02400018024000100240012200F0C0
:1043F0001F0102FA01F14009800000F1E020C0F83D
:1044000000117047174B4DF8044D1B68C3F302238E
:10441000C3F1070CBCF1040F88BF4FF0040C1C1D46
:10442000072C34BF0023DB1E012404FA0CFCACF182
:10443000010C0CEA0101994004FA03F35B1E1A40D7
:10444000114300284FEA0111B8BF00F00F0000F13E
:10445000E020B4BF80F8141D80F800145DF8044B10
:10446000704700000CED00E0074A00F007001168FB
:104470004FF6FF03194041EA002040F0FD7040F084
:1044800080601060704700000CED00E01C4838B5FB
:10449000016841F08051016000681A4C00F08050C2
:1044A0000090206840F480302060FFF73DFD054615
:1044B000606810F4803F09D1FFF736FD401BB0F56E
:1044C0007A7F14D8606810F4803FF5D0206840F4FB
:1044D00000302060FFF728FD0546606810F4003FBB
:1044E0000BD1FFF721FD401BB0F57A7F01D90320E6
:1044F00038BD606810F4003FF3D0002038BD0000E4
:1045000040380240007000402DE9F84F16468A46B8
:104510000446FFF709FD834694F83800012804BFDC
:104520000220BDE8F88F012784F8387094F839002C
:104530004FF00008012818BF022504D084F8388005
:104540002846BDE8F88FC4F83C804FF0020984F893
:104550003990002220215B46204600960DF0E0FDB8
:104560000500EBD10022514620460DF053FCDAF84D
:104570002400002818BF84F83970DFD101225B467F
:104580000221204600960DF0CBFD0500D6D1206813
:10459000C0F80C9084F83970D0E70000F8B50446F4
:1045A000FFF7C2FC002C074604BF0120F8BD94F8B9
:1045B0003800012804BF0220F8BD012684F83860C5
:1045C00094F83900002538B984F83850204600F0B6
:1045D00045F841F288302064206801686FF0FF03DD
:1045E000A26821F4F85103EB022211430160206C10
:1045F000002220213B46009020460DF091FD010055
:1046000026D1E269E06823791043226A42EA036214
:1046100002432068036823F0D00323F07F431A434A
:104620000260D4E90502024320684368DFF828C02D
:1046300003EA0C03B4F810C043EA0C431A43426087
:104640002068026842F001020260E56384F8396084
:1046500084F838500846F8BDFEF8E0FF224830B52F
:1046600087B0016841F002010160006800F00200BB
:1046700005901E48016841F002010160016801F0E7
:1046800002010591016841F02001016000680324E6
:10469000174D694600F02000059040200090022050
:1046A00001900120CDE902040A2004902846FFF77A
:1046B00015FB210200910021CDE902140D4C694641
:1046C0002046FFF70BFB04210091092128460491A5
:1046D0006946FFF703FBC020694600902046FFF7BC
:1046E000FDFA07B030BD00003838024030380240D3
:1046F00000040240001402402DE9F84F15468A4696
:104700000446FFF711FC81462068816900F120060C
:1047100094F83820012A04BF0220BDE8F88F012751
:1047200084F8387094F839204FF00008012A18BF37
:10473000022003D084F83880BDE8F88FC4F83C80AC
:10474000BAF1000F35D0222284F839200269521CB8
:1047500062860269521C2286C4F82CA0426922F0AB
:10476000406242F08062426120688161608E90B157
:1047700001224B460621204600950DF0D1FCA8B938
:104780003178E06A421CE2620170608E401E6086F1
:10479000608E0028ECD101224B4602212046009574
:1047A0000DF0BEFC10B922680221D16084F8397086
:1047B000C0E7E06B40F00800E0630120BAE72DE9B4
:1047C000F84F15468A460446FFF7AEFB814620683F
:1047D00094F8381000F12006012904BF0220BDE83A
:1047E000F88F012784F8387094F839104FF00008DA
:1047F000012918BF022003D084F83880BDE8F88F63
:10480000C4F83C80BAF1000F31D0122184F839107D
:104810000169491C61850169491C2185C4F824A0EE
:10482000416921F040614161608D90B101224B46A8
:104830000421204600950DF073FCA8B9606A411C64
:10484000616200783070608D401E6085608D002848
:10485000ECD101224B460221204600950DF060FC70
:1048600010B922680221D16084F83970C4E7E06B86
:1048700040F00800E0630120BEE70000F0B4494DBD
:104880000146464B0020DFF818C12E1F464F2C1D55
:10489000464AB1F5002F18D0B1F5801F1CBFF0BCFF
:1048A0007047216811F4400167D0B1F5800F69D0DD
:1048B000B1F5000F6BD0B1F5400F1CBFF0BC7047D5
:1048C000106810F4800F13D164E0216811F44011D6
:1048D00011D0B1F5801F2FD0B1F5001F57D0B1F521
:1048E000401F1CBFF0BC7047106810F4800F51D0FF
:1048F000F0BC60467047106810F4800F05D1106856
:1049000000F03F00B3FBF0F004E0106800F03F005F
:10491000BCFBF0F029682A68C1F30361C2F3881276
:1049200002FB00F0B0FBF1F02168F0BCC1F3042100
:10493000491CB0FBF1F07047106810F4800F05D1EE
:10494000106800F03F00B3FBF0F004E0106800F0E6
:104950003F00BCFBF0F031683268C1F30361C2F381
:10496000881202FB00F0B0FBF1F02168F0BC01F00E
:104970001F01491CB0FBF1F07047106810F4800F64
:10498000C3D1BCE7106810F4800FDFD1D8E73846F8
:10499000F0BC7047F0BC1846704700000024F400DB
:1049A00040787D01883802400080BB000438024016
:1049B0002DE9F84F04460078DFF82C944FF0000BF7
:1049C00010F0010F5D4610D0D9F8000020F400006F
:1049D000C9F80000D9F80000616B0843C9F800006D
:1049E000606B002808BF4FF0010B2068FF4E10F4E9
:1049F000002F0FD03068E16B20F440100843306086
:104A0000E06BB0F5801F08BF4FF0010B02D000280B
:104A100008BF0125206810F4801F0FD03068216C7A
:104A200020F4400008433060206CB0F5800F08BFD0
:104A30004FF0010B02D0002808BF0125206810F0BC
:104A4000807F18BF4FF0010B10F0200F71D0E848A5
:104A5000016841F0805101600068DFF8988300F040
:104A600080500090D8F8000040F48070C8F8000032
:104A7000FFF75AFA0746D8F8000010F4807F0AD1F1
:104A8000FFF752FAC01B642800F23083D8F8000008
:104A900010F4807FF4D0DFF86083D8F8000010F4C1
:104AA000407031D0218E01F4407181422CD0D8F871
:104AB0000000D8F8001020F4407041F48031C8F8AC
:104AC0000010D8F8001021F48031C8F80010C8F8A0
:104AD0000000D8F8000010F0010F15D0FFF724FAFD
:104AE0000746D8F8000010F0020F08BF41F2883ADC
:104AF0000AD1FFF719FAC01B504500F2F782D8F827
:104B0000000010F0020FF4D0206B4FF4407181438D
:104B10001CBFD9F8000020F4F81000F0EE80C9F8AE
:104B20000000D8F80000218EC1F30B010843C8F83B
:104B30000000207810F0100F07D0306820F080704F
:104B400030603068A16B08433060208810F4804FDB
:104B5000AA4805D00168626E21F44031114301601A
:104B6000218811F4004F05D00168A26E21F4402184
:104B700011430160216811F4803F05D00168E26EA5
:104B800021F4401111430160216811F4003F05D068
:104B90000168226F21F4400111430160217811F076
:104BA000400F05D00168626C21F0030111430160E0
:104BB000217811F0800F05D00168A26C21F00C0162
:104BC00011430160218811F4807F05D00168E26CF7
:104BD00021F0300111430160218811F4007F05D0DC
:104BE0000168226D21F0C00111430160218811F498
:104BF000806F05D00168626D21F44071114301603E
:104C0000218811F4006F05D00168A26D21F4406184
:104C100011430160218811F4805F05D00168E26DC5
:104C200021F4405111430160218811F4005F05D047
:104C30000168226E21F4404111430160216811F4A2
:104C4000800F05D00168A26F21F0806111430160DF
:104C5000216811F4001F0AD00168E26F21F00061A1
:104C600011430160E16FB1F1006F08BF01252168B8
:104C700011F0080F18BF012511F4802F05D001682D
:104C8000626F21F0407111430160216811F4000F3F
:104C900006D00168D4F8802021F0805111430160D2
:104CA000216811F0806F06D00168D4F8842021F0CB
:104CB000005111430160206810F0006F06D0306889
:104CC000D4F8881020F0007008433060206810F09D
:104CD000805F06D03068D4F88C1020F080600843E4
:104CE0003060BBF1000F47F6C07A4FF440374FF009
:104CF00070684FF0E0490ED109E0D9F8001020F4B7
:104D0000407020F0704021F4F811084307E7206854
:104D1000B0F1007F67D13A48006820F080613848E0
:104D20000160FFF701F983463548006810F0006F15
:104D30000BD0FFF7F9F8A0EB0B00642800F2D68146
:104D40002F48006810F0006FF3D1207810F0010FA9
:104D50002C482DD0616B59BB016897FAA7F201F47A
:104D60004031B2FA82F2D140026898FAA8F39AFA76
:104D7000AAFC02F07062B3FA83F3BCFA8CFCDA404E
:104D8000636803FA0CF397FAA7FCBCFA8CFC01FAEF
:104D90000CF1194398FAA8F3B3FA83F39A4099FAFD
:104DA000A9F30A43A168B3FA83F399401143016060
:104DB000216811F4002F03D0E26BB2F5801F06D0FA
:104DC00011F4801F49D0216CB1F5800F45D10168E5
:104DD00097FAA7F201F44031B2FA82F2D1400268A8
:104DE00002F0E04210E0A5E0083802408C380240B2
:104DF0004038024000700040703802409038024055
:104E0000003802408438024099FAA9F39AFAAAFCC1
:104E1000B3FA83F3BCFA8CFCDA40636803FA0CF350
:104E200097FAA7FCBCFA8CFC01FA0CF198FAA8FCE2
:104E30001943E368BCFA8CFC03FA0CF3194399FAA2
:104E4000A9F3B3FA83F39A40114301603168626AAF
:104E500021F01F01521E11433160216811F0807F43
:104E60002ED0016898FAA8F201F07061B2FA82F2CD
:104E7000D140026899FAA9F39AFAAAFC02F0E0423A
:104E8000B3FA83F3BCFA8CFCDA40636897FAA7FBA9
:104E9000BBFA8BFB03FA0CF3D4F810C00CFA0BFC32
:104EA00043EA0C0398FAA8FCBCFA8CFC01FA0CF15A
:104EB000194399FAA9F3B3FA83F39A4011430160B5
:104EC000216811F0007F1CD09AFAAAF2616897FA63
:104ED000A7F3B2FA82F2B3FA83F301FA02F221697C
:104EE000994098FAA8F31143E268B3FA83F39A4021
:104EF00099FAA9F31143A268B3FA83F39A401143D4
:104F000001607F48006840F080617D480160FFF7E4
:104F10000BF883467A48006810F0006F0AD1FFF75B
:104F200003F8A0EB0B0064287DD87548006810F0EA
:104F3000006FF4D0002D77D0714D286820F080509C
:104F40002860FEF7F1FF8346286810F0005F09D063
:104F5000FEF7EAFFA0EB0B00642864D8286810F085
:104F6000005FF5D12068DFF89CC110F4002F01D05C
:104F7000E16B21B110F4801F38D0206CB0BBDCF89D
:104F8000000097FAA7F100F44030B1FA81F1C8406F
:104F9000DCF8001099FAA9F29AFAAAF301F0E041BC
:104FA000B2FA82F2B3FA83F3D14062699A4097FA77
:104FB000A7F3B3FA83F3984098FAA8F31043A269D1
:104FC000B3FA83F39A40104399FAA9F2B2FA82F243
:104FD00091400843CCF8000030686FF0FF02A16AEE
:104FE00020F4F85002EB012108433060206810F4EF
:104FF000001F34D0E06FB0F1006F30D1DCF800005A
:1050000098FAA8F100F07060B1FA81F1C840DCF8BC
:10501000001099FAA9F29AFAAAF301F0E041B2FA63
:1050200082F2D14001E061E067E06269B3FA83F3A4
:1050300097FAA7FB9A40236ABBFA8BFB03FA0BF3A0
:105040001A4398FAA8F3B3FA83F39840104399FAF5
:10505000A9F2B2FA82F291400843CCF8000020781D
:1050600010F0080F32D0DCF8000098FAA8F100F038
:105070007060B1FA81F1C840DCF8001097FAA7F22D
:105080009AFAAAF301F44031B2FA82F2B3FA83F346
:10509000D14062699A4097FAA7F3B3FA83F3994033
:1050A000114398FAA8F2B2FA82F2904099FAA9F262
:1050B0000843E169B2FA82F291400843CCF800005B
:1050C0003068E16A20F4403008433060286840F0DE
:1050D00080502860FEF728FF0446286810F0005F23
:1050E0000BD1FEF721FF001B642802D90320BDE885
:1050F000F88F286810F0005FF3D00020BDE8F88F2B
:1051000000380240883802402DE9F047DFF8688116
:1051100004460D46D8F8000000F00F00A8420CD25B
:10512000D8F8000020F00F002843C8F80000D8F895
:10513000000000F00F00A84270D120784F4F10F00F
:10514000020F05D03868A16820F0F00008433860ED
:10515000207810F0010F4ED060684949012820D016
:105160000968022822D011F0020F57D0396821F0C7
:10517000030108433860FEF7D7FE0646606841F237
:105180008839012816D00228386800F00C0021D098
:10519000F8B1FEF7C9FE801B484528D90320BDE8B9
:1051A000F087096811F4003FE0D137E011F0007F8B
:1051B000DCD133E0386800F00C0004281BD0FEF787
:1051C000B3FE801B4845E9D8386800F00C0004287D
:1051D000F5D110E008280ED0FEF7A6FE801B48454A
:1051E000DCD8386800F00C000828F5D103E03868F6
:1051F00010F00C0FCDD1D8F8000000F00F00A8423D
:105200000FD9D8F8000020F00F002843C8F800009C
:10521000D8F8000000F00F00A84202D00120BDE83D
:10522000F087207810F0040F05D03868E16820F48A
:10523000E05008433860207810F0080F06D0386836
:10524000216920F4604040EAC100386000F054F861
:105250003968F02292FAA2F201F0F001B2FA82F279
:10526000D140084A515CC840074908600F20FEF74A
:105270007BFE0020BDE8F087003C02400838024079
:1052800000380240FE540208300002200148006845
:10529000704700003000022008480949006809688A
:1052A0004FF4E05292FAA2F201F4E051B2FA82F223
:1052B000D140044A515CC8407047000030000220D1
:1052C000083802400E550208084809490068096874
:1052D0004FF4604292FAA2F201F46041B2FA82F213
:1052E000D140044A515CC8407047000030000220A1
:1052F000083802400E5502082148006810F00C01E1
:10530000204808BF7047DFF880C0042904BF60460A
:105310007047082918BF70474DF8044D1B4A1168A3
:10532000136801F03F0113F4800F47F6C0730BD0F0
:10533000BCFBF1F01168194093FAA3F3B3FA83F3BD
:10534000D94000FB01F00AE0B0FBF1F01168194010
:1053500093FAA3F3B3FA83F3D94000FB01F0116889
:105360004FF440325DF8044B92FAA2F201F440315E
:10537000B2FA82F2D140491C4900B0FBF1F070470B
:10538000083802400024F40040787D0104380240CF
:105390002DE9F84FDFF8A88304460078A8F1040748
:1053A00010F0010FA7F104055AD0D8F8000000F062
:1053B0000C00042809D0D8F8000000F00C000828E0
:1053C0000CD1386810F4800F08D0286810F4003F22
:1053D00046D06068002800F0AF8141E06068B0F519
:1053E000803F04BF286840F480300AD010B1B0F587
:1053F000A02F11D0286820F480302860286820F47D
:10540000802028606068D0B1FEF78EFD06462868CF
:1054100010F4003F08D023E0286840F48020286082
:10542000286840F48030ECE7FEF77EFD801B64289E
:1054300000F22581286810F4003FF5D010E0FEF757
:1054400073FD0646286810F4003F09D0FEF76CFD96
:10545000801B642800F21381286810F4003FF5D106
:10546000207810F0020F50D0D8F800004FF0F80963
:1054700010F00C0F18D0D8F8000000F00C0008282D
:1054800004BF386810F4800F0ED0E0680028286848
:1054900028D040F001002860FEF746FD0646286847
:1054A00010F0020F09D011E0286810F0020F1CBFA5
:1054B000E06801280AD000F03FB9FEF735FD801BF7
:1054C00002287DD8286810F0020FF6D0286899FAD3
:1054D000A9F22169B2FA82F220F0F8009140084363
:1054E000286012E020F001002860FEF71DFD06464E
:1054F000286810F0020F08D0FEF716FD801B022866
:105500005ED8286810F0020FF6D1207810F0080F4E
:1055100033D0DFF8309260690028D9F8000016D047
:1055200040F00100C9F80000FEF7FEFC0646D9F87D
:10553000000010F0020F20D1FEF7F6FC801B0228BD
:105540003ED8D9F8000010F0020FF5D015E020F099
:105550000100C9F80000FEF7E7FC0646D9F8000094
:1055600010F0020F09D0FEF7DFFC801B022827D8BD
:10557000D9F8000010F0020FF5D1207810F0040FD8
:1055800063D07148016841F08051016000686F4E3E
:1055900000F080500090306840F480703060FEF77A
:1055A000C3FC8146306810F4807F0BD1FEF7BCFC51
:1055B000A0EB0900642862D8306810F4807F00E016
:1055C0005DE0F3D0A068624E012804BF306840F06F
:1055D000010009D008B1052813D0306820F001007F
:1055E0003060306820F004003060A06841F2883AF2
:1055F000D0B1FEF799FC8146306810F0020F08D058
:1056000023E0306840F004003060306840F0010072
:10561000EAE7FEF789FCA0EB090050452FD8306877
:1056200010F0020FF5D010E0FEF77EFC81463068E6
:1056300010F0020F09D0FEF777FCA0EB09005045EF
:105640001DD8306810F0020FF5D1A069E8B3D8F882
:10565000001001F00C0108296ED00228286820F003
:10566000807028600ED0FEF75FFC0446286810F0BA
:10567000007F5ED0FEF758FC001B022855D903209E
:10568000BDE8F88FFEF750FC0646286810F0007F52
:1056900008D0FEF749FC801B0228F0D8286810F0DB
:1056A000007FF6D1D4E9070147F6C0724FF0FF330F
:1056B00092FAA2F20843616AB2FA82F29140A26AB7
:1056C00003EB52024FF4403300E032E093FAA3F3CD
:1056D000B3FA83F39A4011434FF070620843E16AD2
:1056E00092FAA2F2B2FA82F291404FF0E0420843FD
:1056F000216B92FAA2F2B2FA82F29140084338602A
:10570000286840F080702860FEF70EFC0446286888
:1057100010F0007F0DD1FEF707FC001B0228AED869
:10572000286810F0007FF6D003E0286810F0007FB2
:10573000A0D10020BDE8F88F0120BDE8F88F00005F
:10574000083802407438024040380240007000407F
:1057500070380240002804BF0120704770B504462D
:10576000022084F87D00002520680561681E2168FC
:10577000886120460CF038FF2068416841F008013C
:105780004160204600F0F2F8C4F8805084F87D5063
:10579000002084F87C5070BD2DE9F0414FF00005E9
:1057A00004002E4604BF0120BDE8F08194F87D007E
:1057B000002720B9204684F87C7000F0D9F8022038
:1057C00084F87D0020460CF00FFFE06830B101281E
:1057D00008BF102502D0022808BF2025A06878B194
:1057E000012808BF4FF480660AD0022808BF4FF492
:1057F000006605D0032804BF4FF4006645F001059C
:10580000514A2068514B904216BF98425048514827
:105810000560E06938B321680020914212BF9942C7
:105820004FF40020FFF72AF84B4A2168914219BF34
:105830004A4A91424FF48010FFF720F800EB8000B5
:10584000E16940004902B0FBF1F14548A0FB0120AD
:10585000C0082062424202EB820201EB42010829A9
:1058600084BF401C20626068002818BF0228E06BDB
:1058700002D0012802D004E0012802D04FF40070C9
:1058800000E0002021680A68364B1A400A60226B4B
:1058900061681143D4E90D231A4311430843616A37
:1058A000304308432169084361690843218C40EA79
:1058B000015120680268114301602068416821F0AD
:1058C0000F0121F46041416020684168A2691143E1
:1058D000D4E90A231A431143416020688168224AAF
:1058E00011408160A16C206D226C0843E16C521E56
:1058F0001143626C08436FF0FF0101EB0222024387
:10590000206883681A4382602068C2684FF22003CF
:105910001A40C260D4E915021043E26D01EB022186
:10592000B4F8602041EA024101432068C268114393
:10593000C160C4F88070012084F87D00002084F8E4
:105940007C70BDE8F08100000458014024580140FB
:1059500000580140005C0140045C0140245C0140AF
:10596000CDCCCCCC10C005FF0080F8FF7047000004
:1059700012484DF804ED87B0016841F480010160E0
:10598000006800F4800005900D48016841F01001A6
:1059900001600068694600F0100005907C200090CE
:1059A0000220019001200290032003900620049021
:1059B0000448FEF793F907B05DF804FB4438024051
:1059C0003038024000100240002804BF0120704718
:1059D00070B5044690F82C000D4628B9002084F8D4
:1059E0002D00204600F012F8022084F82C002068D8
:1059F000211DFCF73BFBD4E900022946FCF794FB90
:105A0000012084F82C00002070BD000030484DF8C3
:105A100004ED87B0016841F001010160006800F009
:105A2000010005902B48016841F004010160016804
:105A300001F004010591016841F00801016001686D
:105A400001F008010591016841F010010160016851
:105A500001F010010591016841F020010160016829
:105A600001F020010591016841F0400101600068EA
:105A7000694600F0400005900D2000900220019042
:105A800001200290032003900C2004901248FEF79E
:105A900025F94CF20370009010486946FEF71EF994
:105AA0004FF6837000900E486946FEF717F94FF6DF
:105AB0003F0000900B486946FEF710F948F2371096
:105AC000009009486946FEF709F907B05DF804FB44
:105AD000383802403038024000080240000C0240D2
