:020000040800F2
:10000000183E05209503000871F70008BB81000821
:100010003DEB0008D925000831530108000000001D
:10002000000000000000000000000000713701081F
:10003000F92D000800000000F1210008F93901083D
:10004000CF030008CF030008CF030008CF03000848
:10005000CF030008CF030008CF030008CF03000838
:10006000CF030008CF030008CF030008CF03000828
:10007000CF030008CF030008CF030008CF03000818
:10008000CF030008CF030008CF030008CF03000808
:10009000CF030008CF030008CF030008CF030008F8
:1000A000CF030008CF030008CF030008CF030008E8
:1000B000CF030008CF030008DD3A0108CF03000892
:1000C000CF030008CF030008CF030008CF030008C8
:1000D000CF030008A95101087D520108C15201084F
:1000E000CF030008CF030008CF030008CF030008A8
:1000F000CF030008CF030008CF030008CF03000898
:10010000CF030008CF0300085D3B0108CF030008C0
:10011000CF030008CF030008CF030008693B0108A4
:10012000CF030008912C0008CF030008612D0008C0
:10013000CF030008CF030008CF030008CF03000857
:10014000CF030008CF030008CF030008CF03000847
:10015000CF030008CF030008CF030008CF03000837
:10016000CF030008CF030008CF030008CF03000827
:10017000CF030008CF0300080D2C0008000000008A
:10018000CF030008CF030008CF030008CF03000807
:10019000CF030008CF030008CF030008CF030008F7
:1001A000CF030008CF030008CF030008CF030008E7
:1001B000CF030008CF030008CF030008CF030008D7
:1001C000CF030008CF03000800000000CF030008A1
:1001D000CF030008CF030008CF030008CF030008B7
:1001E000CF030008CF030008CF030008CF030008A7
:1001F000CF030008CF03000800F002F800F0B2F8C7
:100200000AA090E8000C82448344AAF10107DA4571
:1002100001D100F0A7F8AFF2090EBAE80F0013F011
:10022000010F18BFFB1A43F0010318475C99020045
:100230007C9902000A444FF0000C10F8013B13F0C7
:10024000070408BF10F8014B1D1108BF10F8015B2F
:10025000641E05D010F8016B641E01F8016BF9D122
:1002600013F0080F1EBF10F8014BAD1C0C1B09D179
:100270006D1E58BF01F801CBFAD505E014F8016BEB
:1002800001F8016B6D1EF9D59142D6D3704700007D
:100290000023002400250026103A28BF78C1FBD88F
:1002A000520728BF30C148BF0B6070476E2900F06D
:1002B0004182702900F06583662922F00C86652949
:1002C00022F00986672922F006866129AFF30080B3
:1002D00003681B0A28BF41F08001692900F0EE8104
:1002E000642900F0EB81752900F0E8816F2900F0A6
:1002F000F382782900F03183E92900F08D82E42926
:1003000000F08A82F52900F08782EF2900F0F08260
:10031000F82900F030830368DB0928BF41F0800131
:10032000632900F06287732900F06787E32900F0F2
:100330008587F32900F08A87002070471FB522F0D7
:10034000C5FD01F083FA04000020002122F092FD97
:10035000401C60600020002122F0A2FDE0601FBD73
:1003600010B510BD01F04DFA1146FFF7E7FF19F087
:100370006DF801F01DFB03B4FFF7F2FF03BC15F0AD
:100380001EFE000030BF72B6704762B6704780F341
:100390000888704711488047DFF84400016841F43D
:1003A00070010160BFF34F8FDFF83800016821F062
:1003B00040410160BFF36F8F0B480047FEE7FEE747
:1003C000FEE7FEE7FEE7FEE7FEE7FEE7FEE7FEE705
:1003D00006480749074A084B704700001D3A0108C4
:1003E00088ED00E034EF00E0F9010008183805203E
:1003F000183E0520183A0520183A052072B67047B5
:1004000062B67047EFF3108072B6704780F31088C1
:10041000704730BF704720BF7047B0FA80F0704718
:1004200090FAA0F0B0FA80F0704790FAA0F0704710
:10043000704753EA020C00F069802DE9F04B4FF051
:100440000006002B1FBFB3FA83F503FA05F424FA64
:1004500005F65E4012BF1643B2FA82F502FA05F4C1
:10046000C5F120051EBF22FA05FC44EA0C04203524
:1004700056EA044C4FEA144418BF641C4FF00008BD
:100480004FF00009904271EB030C39D3002919BFDA
:10049000B1FA81F701FA07F6B0FA80F700FA07F629
:1004A000C7F120071EBF20FA07FC46EA0C062037DA
:1004B000B6FBF4FCA7EB0507103F07F01F0BCBF1D1
:1004C00020060CFA0BFB2CFA06F644BFB3460026B6
:1004D000202FA4BF5E464FF0000B5BEA060C08BF5E
:1004E0004FF0010B19EB0B09ABFB027C48EB060844
:1004F000C01B06FB02CC0BFB03CC71EB0C01C1E76C
:100500000B46024641464846BDE8F08B13B54FF016
:1005100000004FF00001AFF30080BDE81C407047C1
:10052000B2F120030AD5C2F1200320FA02F001FA49
:1005300003F341FA02F140EA0300704741FA03F085
:100540004FEAE171704710B54C1084EA530404D5AA
:100550004042C1F1000138BF491E1B4204D552423E
:10056000C3F1000338BF5B1EFFF763FF14F0804F39
:1005700004D04042C1F1000138BF491E14F0004FC1
:1005800004D05242C3F1000338BF5B1E10BD00000F
:100590001CB50C46064B7B4469460090204600F093
:1005A00002FE04460020694600F010FE20461CBDF5
:1005B000330C00000FB4044910B503AA029800F0F0
:1005C00021FE10BC5DF814FB400002200FB41CB5E6
:1005D000084B06AA7B4469460090059800F0E3FDAD
:1005E00004460020694600F0F1FD20461CBC5DF881
:1005F00014FB0000F50B000070B504468569006827
:10060000C10601D5302600E02026C00707D070BD06
:10061000D4E9012130469047206A401C20626D1EBB
:10062000F6D570BD70B5044685690078C00707D15E
:1006300070BDD4E9012120209047206A401C20622F
:100640006D1EF6D570BD09684A0501D540B27047E8
:10065000C905FCD500B2704709684A0501D5C0B28A
:100660007047C905FCD580B2704770B50C46054689
:10067000012A05D02878800600D5EA69002302E027
:10068000012305E05B1C934202D2E05C0028F9D113
:10069000A869E618C01AA861286A18442862284682
:1006A000FFF7AAFF04E0D5E9012114F8010B9047F8
:1006B000B442F8D32846FFF7B5FF70BD2DE9F041ED
:1006C0000646002410687529314616A510D0FFF79C
:1006D000BAFF002802DA404213A507E031688A0712
:1006E00001D512A502E0490704D511A5012401E0B6
:1006F000FFF7B2FF00210A2206F1240709E0B0FB50
:10070000F2FCB0FBF2F302FB1C00303078541846C8
:10071000491C0028F3D123462A463046BDE8F04163
:1007200000F0E2BC000000002D0000002B000000E3
:100730002000000011680268006A530501D50870A6
:100740000AE0D30501D5088006E0130603D5C217D9
:10075000C1E9000200E00860012070472DE9FF5F59
:1007600015468A460446DFF8AC80F8440027D8E9ED
:1007700000103E46CDE9001010E03AF816106A4627
:1007800002A800F067FD411C07D02178890603D537
:10079000E269391891420DD80744761C207880060A
:1007A00002D5E069B84205DDAE42E6DB3AF8160054
:1007B0000028E2D1A069C01BA0612046FFF71CFF02
:1007C000D8E90010CDE90010002017E03AF8181021
:1007D0006A4602A800F03EFDB0F1FF3F81460BD013
:1007E00000250DF1080B05E0D4E901211BF80500F7
:1007F00090476D1C4D45F7D308F10100B04280468B
:10080000E4DB206A384420622046FFF70BFFBDE896
:10081000FF9F00000E8D02002DE9F0418046D21DA1
:1008200022F007020025D2E90002F52915A614D00E
:10083000011E72F1000106DA0023D0EB030063EB26
:10084000020211A608E0D8F800108B0701D50FA608
:1008500002E0490701D50EA601251146002408F142
:10086000240704E000F0F0FB30323A55641C50EAF3
:100870000102F7D12B46324621464046BDE8F04101
:1008800000F032BC000000002D0000002B00000032
:100890002000000030B4002100F1240408E002F040
:1008A0000705D208303542EA4372DB086554491C1B
:1008B00052EA0305F3D10468002310A2250708D5E6
:1008C00004F020040C4304D0C46901230CA2641E6C
:1008D000C46130BC00F008BC10B504462146106865
:1008E000FFF7BAFE02462046BDE810400023D1E7DC
:1008F000D21D22F00701D1E90023CBE70000000060
:1009000030000000F0B40D460188090502D5214CE5
:100910007C4402E01F4C7C440E34002100F124068C
:1009200008E002F00F071209E75D42EA03721B09B3
:100930007754491C52EA0307F3D1027800231207C7
:1009400004D5702D06D009B1022311342246F0BC23
:1009500000F0CABB01231034F8E770B504460D4619
:1009600021461068FFF778FE024629462046BDE87A
:1009700070400023C6E7D21D22F00703D3E900230D
:10098000C0E70368126843F0200303600823C361D3
:100990000023B7E7708B02002DE9F05F894604461B
:1009A0004FF0000ADFF874B1FB44C0F820A02046E5
:1009B000E1688847002874D0252806D0D4E90121B1
:1009C0009047206A401C2062F1E700265F462046DF
:1009D000E16888472028054607DB312D05D27819C4
:1009E00010F8200C08B10643F1E7B00701D526F056
:1009F0000406C4F81CA00027C4F818A02A2D09D0AA
:100A0000284615F0D5FA38B304EB8708303DC8F80E
:100A1000185019E059F8041B204604EB8702916135
:100A2000E1688847012F054618D1E069002820DADF
:100A300026F020061DE0D8F8180000EB800005EB3A
:100A400040003038C8F818002046E168884705465D
:100A500015F0AEFA0028EED1012F0AD02E2D08D1C4
:100A60002046E16888477F1C0546022F46F0200695
:100A7000C4DBA069002803DA404246F00106A06109
:100A8000F00701D026F010066C2D0BD0682D09D090
:100A90004C2D39D06A2D35D0742D35D07A2D33D0E8
:100AA00016E038E0E1682F4620468847B842054600
:100AB00009D16C2F26D04FF48060E16806432046B0
:100AC0008847054604E06C2F1AD04FF48070064327
:100AD0000DB3A5F14100192802D8203546F400666F
:100AE0004A462946204626604E46FFF7DFFB80B186
:100AF00001280BD0F61D26F0070000F1080956E783
:100B00004020E4E78020D8E70020D6E706F104097A
:100B10004DE7284652E7206ABDE8F09F008B0200AF
:100B20002DE9F04F9B4616464FF00109C1B02091C8
:100B30000090A9F1010920A85DF8295050F829007A
:100B4000C5E04FEA6A0070432C185FEACA7100D111
:100B5000801B5A46214627182846904700280EDD5C
:100B6000304646EA0501890765D022782978401E7B
:100B700005F8012B04F8011BF7D1AD1BA41B5A4645
:100B8000394620469047002823DD5A4639462846F4
:100B9000904700280EDD304646EA0501890751D00E
:100BA0003A782978401E05F8012B07F8011BF7D188
:100BB000AD1BBF1B304646EA0401890749D03A788D
:100BC0002178401E04F8012B07F8011BF7D1A41B64
:100BD000BF1B314646EA0402B81B920740D0037897
:100BE0002278491E04F8013B00F8012BF7D12C466E
:100BF000871BB84634445A46414620469047002851
:100C0000F8DB5A464146BF1B384690470028F8DCBF
:100C1000304646EA0401A7424FEA81712ED931B32A
:100C20003A782178401E04F8012B07F8011BF7D110
:100C3000A41BBF1BDEE722682968001F04C502C48D
:100C4000F9D19AE73A682968001F04C502C7F9D1AB
:100C5000AEE73A682168001F04C402C7F9D1B6E7BD
:100C600003682268091F08C404C0F9D1BFE73A68C5
:100C70002168001F04C402C7F9D1D9E7E1B198F88F
:100C800000202178401E04F8012B08F8011BF6D142
:100C9000A21B501BB0FBF6F0401EAAEB0001491E40
:100CA000884216DD0A2910DD20AB4DF8295043F8A3
:100CB000290009F1010918E0D8F800202168001F77
:100CC00004C448F8041BF7D1E2E70A2810DD824685
:100CD00037E70A2807DD4DF8292020AA42F8291015
:100CE00009F10109F3E70A2902DD15468A4628E7DA
:100CF000B9F1000F7FF41DAF41B0BDE8F08F2DE9D1
:100D0000F04799460F460646140039D0002F37D0D9
:100D10000A2F01D9FFF704FF7F1E354607FB045851
:100D20002CE02F46254400E03F1BB74205D34A463E
:100D30002946384690470028F6DC44EA05003B196E
:100D400080070CD0002117E029180A1B0F6802E069
:100D500011681151121B9A42FAD2001D1751A0427C
:100D60000CD2F1E76818027801E007780755001BFC
:100D70009842FAD2491C0255A142F3D34545D0D33B
:100D8000BDE8F08730B505460B462A4613F8014BFF
:100D900012F8010B08B1A042F8D01CB1002802D013
:100DA0006D1CF1E7284630BD40EA010310B59B07F2
:100DB0000FD1042A0DD310C808C9121F9C42F8D0C5
:100DC00020BA19BA884201D9012010BD4FF0FF3076
:100DD00010BD1AB1D30703D0521C07E0002010BD8C
:100DE00010F8013B11F8014B1B1B07D110F8013B18
:100DF00011F8014B1B1B01D1921EF1D1184610BDF9
:100E000040EA0103024630B59B0710D14FF0013490
:100E100000E008C208C91D1B9D4315EAC41FF8D095
:100E200013F0FF0102F8011B0DD01B0AF8E711F8BF
:100E3000013B002B02F8013B05D011F8013B002BD0
:100E400002F8013BF3D130BD10B5431C02E010F8AD
:100E5000011B71B18107FAD14FF0013202C88C1A1F
:100E60008C4314EAC211F9D0C01A0A0603D0C01E7E
:100E700010BDC01A10BD0A0401D0801E10BD0902A9
:100E8000FCD0401E10BD032A40F2308010F0030C4D
:100E900000F0158011F8013BBCF1020F624498BFCD
:100EA00011F801CB00F8013B38BF11F8013BA2F16A
:100EB000040298BF00F801CB38BF00F8013B11F0E5
:100EC000030300F0E781083AC0F0088051F8043BC2
:100ED000083A51F804CBA0E80810F5E7121D5CBFF2
:100EE00051F8043B40F8043BAFF30080D20724BF25
:100EF00011F8013B11F801CB48BF11F8012B24BFB9
:100F000000F8013B00F801CB48BF00F8012B704707
:100F1000431A28BF9A427FF6B6AF032A1044114401
:100F200040F2268010F0030F1EBF11F8013D521E43
:100F300000F8013D10F0030F7FF4F6AF11F003034A
:100F400000F0ED81083AC0F00B8051F8043D083AFA
:100F500051F804CD40F8043D40F804CDFFF7F3BF4D
:100F6000121D5CBF51F8043D40F8043DAFF3008012
:100F7000D20724BF11F8013D11F801CD48BF11F887
:100F8000012C24BF00F8013D00F801CD48BF00F856
:100F9000012C70474FF000020429C0F0128010F0BD
:100FA000030C00F0E881CCF1040CBCF1020F18BF77
:100FB00000F8012BA8BF20F8022BA1EB0C0100F0D8
:100FC000DAB95FEAC17C24BF00F8012B00F8012BDD
:100FD00048BF00F8012B70474FF0013C50F8042B3C
:100FE00051F8043B9A4215D1A2EB0C03934313EA48
:100FF000CC130BD150F8042B51F8043B9A4209D181
:10100000A2EB0C03934313EACC13E7D04FF000009C
:10101000704700BFD01A01BAB1FA81F101F018018E
:1010200022FA01F0CB40C1F12001DBB2C0B2C01AFC
:101030002CFA01F3D11A914311EAC311E6D170479A
:10104000704770477047704730B5B0F10A024FEAF9
:10105000900E71F100034EEA817EB0EB0E0061EB61
:1010600091014FEA101E4EEA017E10EB0E0041EB9B
:1010700011114FEA102E4EEA016E10EB0E0041EBFB
:1010800011214FEA104E4EEA014E10EB0E0041EBDB
:101090001141401841F100014FEAD00040EA41708F
:1010A0004FEAD10110EB80054FEA810444EA9074C5
:1010B00044EB01046D1944EB0404521BA3414FF0AF
:1010C000000348BF0A3200D530BD401C41F1000189
:1010D00030BD10B500F080F9006810BD10B50446B1
:1010E00000F07AF9046010BD2DE9F0470D469946ED
:1010F0009246044600F124080168880604D5E06998
:1011000021F01001216000E00120A84201DD471B11
:1011100000E00027A1697A1902EB0900081AA06112
:101120002078C00602D42046FFF766FA002608E0C1
:10113000D4E901211AF806009047206A401C761C69
:1011400020624E45F4DB2078C0060AD52046FFF722
:1011500053FA06E0D4E9012130209047206A401C70
:101160002062381EA7F10107F4DC07E0D4E9012171
:1011700018F805009047206A401C2062281EA5F13F
:101180000105F3DC2046FFF74DFA2078000602D572
:101190000220BDE8F0870120FBE7000001694A1C3E
:1011A00002610878704700B58FB0CDE901310021A8
:1011B000059105497944CDE9031011466846FFF7CA
:1011C000EBFB0FB000BD0000E5FFFFFF0A6802F86F
:1011D000010B0A60704710B5436913B1AFF300808B
:1011E00001E0FFF742FA012010BD127800F124015E
:1011F0000A7000224A700122EDE711684FF0FF32B9
:10120000E9E70000074B70B50D467B44FFF7CBFFC5
:101210000446284600F0F1FA10B14FF0FF3070BDDF
:10122000204670BD6375010010B5436913B1AFF37B
:10123000008001E0FFF792FA012010BD128800F152
:10124000240182840022C2840122EDE711684FF05C
:10125000FF32E9E770B516460C46054600F0B4F8D3
:10126000036893F80101012806D0FF2C0FD8185D00
:1012700068B101202C7070BDD3F8070132462146B9
:1012800003F2071303442846BDE8704018474FF0A7
:10129000FF3070BD10B5203AC0F00B80B1E8185097
:1012A000203AA0E81850B1E81850A0E81850BFF450
:1012B000F5AF5FEA027C24BFB1E81850A0E81850EF
:1012C00044BF18C918C0BDE810405FEA827C24BF43
:1012D00051F8043B40F8043B08BF7047D20728BFD1
:1012E00031F8023B48BF11F8012B28BF20F8023B20
:1012F00048BF00F8012B7047431A28BF9A427FF677
:10130000C9AF104410F0030F11441EBF11F8013D86
:10131000521E00F8013D10F0030F7FF4F6AF103AB3
:10132000C0F00A8010B531E91850103A20E9185081
:10133000BFF4F9AFBDE81040530724BF31E90810EE
:1013400020E9081044BF51F8043D40F8043D12F074
:10135000030F08BF7047D20728BF31F8023D48BFCE
:1013600011F8012C28BF20F8023D48BF00F8012CDD
:1013700070474FF0000200B5134694469646203958
:1013800022BFA0E80C50A0E80C50B1F12001BFF43E
:10139000F7AF090728BFA0E80C5048BF0CC05DF8A4
:1013A00004EB890028BF40F8042B08BF704748BFF2
:1013B00020F8022B11F0804F18BF00F8012B704766
:1013C00000487047B437052010B500F03FFA001D03
:1013D00010BD00BFA11A020000487047B4370520B5
:1013E00070472DE9FF4F0C461E464FF0FF378BB07C
:1013F000D2E90001DDF860800A908A46C1F30A55FF
:1014000005B93D46002108464FF00000BAF1000F33
:1014100000F4400005DA00EB80004FF4400101EADF
:1014200050004FEA9059B9F1010F00DDB9460A9812
:1014300050EA4A000ED044F61050A5F2FF3545435D
:101440002F14B8F1000F1ED07542291E1EDDC9F100
:1014500000021CE0B8F1010F4FF0000001D0302174
:1014600003E0F24305E02154401CB042FBDB304670
:101470000022002121540B99C1F80880C1E9002005
:101480000FB0BDE8F08FBD1B6D1CDEE74A4600DAE9
:10149000694206A800F01EFA06AB93E8070003AB0A
:1014A00083E8070050460A9900F088FA8DE80700A3
:1014B000A0F500501F3800900398002D09DD42F27E
:1014C0001F014A46084403A90390684600F0E7FC60
:1014D00008E0A0F500504A461F3803A9039068466B
:1014E00000F0F1FC8DE807000004000C03D04FF081
:1014F000FF30410800E01046B8F1000F03D0002291
:10150000009215461EE0751E05D4FFF79DFD303292
:1015100062556D1EF9D5B3460122084302D0002260
:101520007F1C04E02078302801D100227F1E002A91
:10153000099786D01DE0112D07DAFFF785FD3032BF
:1015400062556D1C50EA0102F5D1084302D00098A3
:10155000C8B10EE00021681E05E0235C625C6354A4
:101560002254401E491C8142F7DBAB46A81B401E9B
:101570000990002004F80B000B98099AC0F8088025
:10158000C0E9002B7CE711264FF0000859E72DE950
:10159000F04F88460446D21D22F0070191B0D1E9F0
:1015A0000001CDE90A0114F06BF902460B98C00F57
:1015B00001D02D2007E02068810701D52B2002E013
:1015C000202101EAC000032A099001D0072A05DB87
:1015D00003464146204600F03DF90BE120788006A5
:1015E00001D5E06900E00620B8F1650F814606D01C
:1015F000B8F1660F18D0B8F1670F70D131E0002054
:10160000B9F1110F009001DB112301E009F1010391
:101610000AAA01A90CA8FFF7E4FEDDE90C70002678
:1016200009F10105834647E001204B4600904FF049
:1016300000470AAA01A90CA8FFF7D3FEDDE90DB007
:101640000C995D46002610B909F101000D18B9EB9F
:10165000050003D4C0F1FF3609F10105A5EB09002F
:101660002BE0B9F1010F01DA4FF001090020B9F1C7
:10167000110F0090484601DD112300E003460AAA3D
:1016800001A90CA8FFF7ADFEDDE90C704D46002660
:101690008346207800070AD4AB4500DA5D4601A8EE
:1016A000012D04DD411911F8011C302907D04F45E7
:1016B00002DA17F1040F04DA012082460FE06D1EF2
:1016C000EEE7002F02DCED1B3E4403E0781CA8424D
:1016D00000DD7D1CB81B00F1010A4FF000472078A7
:1016E000000703D4AA4501DB4FF0FF3A0021B7F110
:1016F000004F0DF143088DF8431024D002202B2316
:10170000002F01DA7F422D230A21021EA0F10100E1
:1017100000DC5FB197FBF1FC97FBF1F201FB1C7C55
:1017200017460CF1300C08F801CDEEE7A8F10100E6
:1017300003702188090501D5452100E06521A0F14C
:10174000010800F8011C09980FA9A1EB0807FF1D6B
:1017500000B10120411901EBEA70A1693844081A6F
:10176000401EA0612078C00602D42046FEF744FF48
:10177000099828B1D4E901219047206A401C2062D1
:101780002078C00622D52046FEF736FF1EE0002E48
:1017900004DBB34502DD01A8805D00E03020D4E920
:1017A00001219047206A401C2062761CAAF10100AA
:1017B0005FEA000A0AD100F049F8C0680168405C9D
:1017C000D4E901219047206A401C2062281EA5F11F
:1017D0000105DCDC07E0D4E9012118F8010B904792
:1017E000206A401C2062381EA7F10107F3DC204666
:1017F000FEF718FF032011B043E6007B00F08000E5
:1018000070477546FFF7DCFDAE4605006946534656
:1018100020F00700854618B020B5FEF7D9FDBDE8D9
:1018200020404FF000064FF000074FF000084FF047
:10183000000B21F00701AC46ACE8C009ACE8C009D8
:10184000ACE8C009ACE8C0098D4670470048704755
:10185000D43705202DE9F0411F46044603260168D0
:10186000072A01F4006004DB08B116A505E016A5FF
:1018700003E008B115A500E015A521F010002060D7
:10188000A069C01EA0610FB1401EA0612046FEF7F6
:10189000B3FE4FB1D4E9012138469047206A401C7D
:1018A0002062C01C206206E0206AFAE7D4E9012128
:1018B00015F8010B9047761EF8D22046FEF7B2FECF
:1018C000BDE8F0814E414E006E616E00494E46000B
:1018D000696E66002DE9F047814616468AB03348A6
:1018E00078440DC88DE80D0030487844801C03AC66
:1018F0000DC884E80D0041F69B300844372190FB69
:10190000F1F290FBF1F5A5F1800501FB12041B3CFF
:1019100002D56442012000E00020DFF890A080465C
:101920000027FA44AAF1BE0A0DE0E00709D03246CA
:10193000684607EB47010AEB810100F0C4FA8DE825
:10194000070064107F1C002CEFD1184F7F44AC3F80
:1019500018E0E80714D007EB04100DF1180A90E81E
:101960000E008AE80E00C068F04201D19819089074
:10197000324606A903A800F0A6FA03AB83E80700E5
:101980006D10641C002DE4D132466946B8F1000F99
:1019900003A802D000F083FA01E000F094FAC9E94C
:1019A0000001C9F808200AB0BDE8F087787D020080
:1019B0000446AFF300802046FEF7DDFC5FEA400CF2
:1019C00008BF91F0000F4FEA8C234FEAC12243EA8F
:1019D00051514FEA1C5018BF00F5F0404FEA30005B
:1019E00018BF41F000415FEA6C5C00F02980BCF157
:1019F000FF3F08BF40F080407047130C06BF120441
:101A00004FF0100C4FF0000C130E04BF12020CF13B
:101A1000080C130F04BF12010CF1040C930F04BF48
:101A200092000CF1020CD30F04BF52000CF1010C18
:101A300011464FF00002A0F11F00A0EB0C00704710
:101A400011F0004F08BF704731F000413FF4D5AFAF
:101A50000B0C06BF09044FF0100C4FF0000C0B0EDE
:101A600004BF09020CF1080C0B0F04BF09010CF1B3
:101A7000040C8B0F04BF89000CF1020CCB0F04BFC8
:101A800049000CF1010CCCF12003A0EB0C0022FA70
:101A900003F302FA0CF241EA030100F1010070477E
:101AA00020F07F4C80EA030023F07F47ACEB070374
:101AB00003F57C5300F0004003F1FF032DE980495A
:101AC0004FEA154B09B44FEA144325EA0B4E24EABA
:101AD00003480FF2042606EB132749083E785FEA15
:101AE000320203FB0667C7F5000707FB06F64FEA5D
:101AF00054374FEAD64606F1020607FB066CCCF1D6
:101B0000005C4FEA1C472CEA074C07FB06F40CFB71
:101B100006F504EB15464FEA961634BF00204FF049
:101B200000404FEAD13706FB07FC4FEA1C4C0CFB88
:101B30000BF7D21B03FB0CF761EB07010CFB0EF755
:101B4000B0EB074072EB17420CFB08F734BFA2EB77
:101B50000742B2EB074261EB17414FEA0C444FEAF0
:101B6000910706FB07FC4FEA1C4C0CFB0BF7B0EB94
:101B7000C74072EB573203FB0CF734BFA2EBC742EE
:101B8000B2EBC74261EB57310CFB0EF7B0EBC7006D
:101B900072EB57720CFB08F734BFA2EBC702B2EB33
:101BA000C70261EB5771039F4FEA816141EA9211CD
:101BB00004EBCC044FEAD1374FEA826206FB07FC04
:101BC00042EA90124FEA80604FEA1C4C0CFB0BF784
:101BD000D21B03FB0CF761EB07010CFB0EF7B0EB1C
:101BE000074072EB17420CFB08F734BFA2EB074229
:101BF000B2EB074261EB17414FEA8C554FEA910770
:101C000004EB9C2406FB07FC4FEA1C4C0CFB0BF777
:101C1000B0EBC74072EB573203FB0CF734BFA2EBBB
:101C2000C742B2EBC74261EB57310CFB0EF7B0EB8A
:101C3000C70072EB57720CFB08F734BFA2EBC70268
:101C4000B2EBC70261EB577115EB4C254FEA81618E
:101C500041EA92114FEA82624FEAD13742EA90128A
:101C600006FB07FC44F100044FEA80604FEA1C4C7D
:101C70000CFB0BF7D21B03FB0CF761EB07010CFB12
:101C80000EF7B0EB074072EB17420CFB08F734BFBE
:101C9000A2EB0742B2EB074261EB174115EB1C15B3
:101CA0004FEA813141EA92414FEA823242EA904260
:101CB0004FEA80304FEA0C7644F1000448EA0343CF
:101CC0004EEA0B484FF0000EB2EB080C71EB030725
:101CD00024BF624639464EEB0E0E4FF0000B001843
:101CE000524149414BEB0B0BB2EB080C71EB030774
:101CF0007BF1000B24BF624639464EEB0E0E4FF0CF
:101D0000000B0018524149414BEB0B0BB2EB080C96
:101D100071EB03077BF1000B24BF624639464EEBA3
:101D20000E0E51EA020718BF46F0010616EB0E76BA
:101D300055F1000254F1000103D5BDE88901BDE869
:101D40000088BDE88901BDE80048B619524141EB61
:101D50000101A3F10103704780807F7E7D7C7B7A47
:101D60007978777676757473727171706F6E6E6D47
:101D70006C6C6B6A6A6968686766666564646363ED
:101D800062616160605F5F5E5E5D5D5C5C5B5B5A73
:101D90005A595958585757565655555554545353E0
:101DA00052525251515050504F4F4F4E4E4D4D4D3B
:101DB0004C4C4C4B4B4B4A4A4A4949494848484786
:101DC00047474746464645454544444444434343C4
:101DD0004342424242414141002B26D4770021D068
:101DE0001CB54FEA370703B44FF010004FF0100155
:101DF0004FF000000FBCBDE810400BF1010BBBF130
:101E0000010F08BF5FEA170722BF12F1010211F1AB
:101E100001014FF0004143F1000300F0004043EAAC
:101E200000007047F9D35708DAE746EA064613F18F
:101E3000400F4FEA16461FDD13F1200FDFBF164398
:101E40000A46002120335B42C8D0C3F1200746EA8E
:101E5000064602FA07F74FEA164646EA0706C3F1B6
:101E6000200722FA03F201FA07F721FA03F14FF0F3
:101E7000000342EA0702B1E746EA020646EA0646DE
:101E80004FEA164646EA0106BCBF46EA0646360C4D
:101E90004FF000034FF000024FF000019EE72DE9E4
:101EA000C048934630B491E8380007C831EA400C86
:101EB00048BF34EA430C03D5FFF7F2FDFFF78CFF70
:101EC000F0BCBDE800882DE9C048934630B491E8E5
:101ED000380007C810F0804F08BF13F0804F03D1BF
:101EE00000F005F8FFF778FFF0BCBDE8008820F0AF
:101EF0007F4780EA030023F07F4C07EB0C03A3F538
:101F00007C5300F00040A3F1FE0392F0000F00F0BC
:101F1000B38095F0000F00F077802DE901494FEA7A
:101F200011404FEA144621EA004800FB06FC24EA6F
:101F3000064708FB06F607FB08F800FB07F718EB57
:101F400006484CEB164C4FEA124B18EB07484FEA89
:101F500015464CEB174022EA0B4E0BFB06FC25EA1C
:101F600006470EFB06F607FB0EFE0BFB07F71EEB04
:101F7000064E4CEB164C4FF000061EEB074E4CEB9A
:101F8000174B18EB0B0840F1000018EB0E0B58EB49
:101F9000000840F100008F1A4FF000013CBFC94318
:101FA000661B14BFB5EB040C00213CBFC943F61BF4
:101FB0004FEA17444EEA8E0E27EA04454FEA1C47C3
:101FC00004FB07622CEA074C05FB07F70CFB05F640
:101FD00004FB0CFC16EB074642EB174216EB0C46D3
:101FE00042EB1C421BEB060658EB0202414146EA5B
:101FF0009E0601D5BDE80189B619524141EB0101A8
:10200000A3F10103BDE801894FEA14454FEA1147E6
:1020100024EA054621EA074C05FB07F406FB07F70F
:102020000CFB06F105FB0CFC11EB074144EB1744DC
:102030004FEA124711EB0C4144EB1C4422EA074CD7
:1020400005FB07F206FB07F70CFB06F605FB0CFC8D
:1020500016EB074642EB174216EB0C4642EB1C45CB
:102060006A1854F1000148BF7047B619524141EB5C
:102070000101A3F10103704795F0000F37D04FEA3B
:1020800011424FEA144721EA024624EA074C02FBB8
:1020900007F106FB07F70CFB06F402FB0CFC14EB44
:1020A000074441EB17414FEA154714EB0C4441EB51
:1020B0001C4125EA074C02FB07F506FB07F70CFB62
:1020C00006F602FB0CFC16EB074645EB174516EB34
:1020D0000C4645EB1C42121951F1000148BF7047F4
:1020E000B619524141EB0101A3F1010370474FEAD8
:1020F00014454FEA114724EA054621EA074C05FB3F
:1021000007F106FB07F70CFB06F24FF0000605FB94
:102110000CFC12EB074241EB174112EB0C4251EB66
:102120001C4148BF7047921841EB0101A3F1010324
:1021300070470000EFF3098141B1F1EE101A40F849
:10214000041D20ED200A3E490A6810607047B0EC7B
:10215000200A02C8E1EE101A3A490A681060704776
:1021600072B64EF62250CEF2000040F2FF01C0F2ED
:10217000000101704FF0000080F309880EF00EFBA3
:1021800040F2B810C2F20200016881F3088840F200
:102190004210C2F2020040F24311C2F202010A7878
:1021A000027040F2B015C2F2020540F2B411C2F260
:1021B00002010A682A60106880F30988EFF314802E
:1021C00040F0020080F31488BFF36F8FBDE8F00F7A
:1021D0000FBCBDE8005006BC62B608471A484FF075
:1021E00080510160704718484FF08051016070477E
:1021F00072B6EFF3098020E9F00F40F2B015C2F299
:1022000002052E68306074460EF0C8FA40F24210A3
:10221000C2F2020040F24311C2F202010A780270D7
:1022200040F2B411C2F202010A682A6044F0F40ECE
:102230001068B0E8F00F80F3098862B670470000BC
:10224000B0010220B401022004ED00E01B4D84B077
:102250001B4C012705F120064FF008080DF1080A74
:102260004FF000091749164810F0E0FDA879D8B1E1
:10227000EF712178012917D1082888BF85F80680D9
:1022800006210F4800F060FAE179B1EB102F0BD175
:10229000A179C0B2814208BF002005D1215C315430
:1022A000401CC0B20828F9D3002205231146CDE90D
:1022B000009A10460EF0F6FAD4E700000000022063
:1022C000F05102200600022005F078BF2DE9F0470A
:1022D0000E0001464FF0000004461ABF01EB06084D
:1022E0004FF0A009BDE8F0870702A8EB0400451EE7
:1022F00006F03CF8280A09EB4000C0B205F0FAFFEE
:1023000006F084F8E8B205F0F5FF06F07FF806F075
:102310002DF8A12005F0EEFF06F078F8002005F07A
:1023200075FF054606F04AF8611CE819CCB2A642D2
:10233000DAD8BDE8F08710B5044606F017F8200A91
:10234000A02101EB4000C0B205F0D4FF06F05EF81A
:10235000E0B205F0CFFF06F059F806F007F8A1202B
:1023600005F0C8FF06F052F8002005F04FFF0446C4
:1023700006F024F8204610BD2DE9F04716000F4660
:1023800080464FF0000414BF4FF0A00ABDE8F0876C
:1023900008EB0405E00027FA00F000F0FF0905F063
:1023A000E5FF280A0AEB4000C0B205F0A3FF06F0E3
:1023B0002DF8E8B205F09EFF06F028F8484605F033
:1023C00099FF06F023F805F0F9FF0A2015F086FCC6
:1023D000601CC4B2A642DBD8BDE8F08770B50D46DC
:1023E000044605F0C3FF200AA02202EB4000C0B261
:1023F00005F080FF06F00AF8E0B205F07BFF06F07A
:1024000005F8284605F076FF06F000F805F0D6FF3F
:10241000BDE870400A2015F061BC000070B5274C83
:10242000254E2DED028B6079DFED258A9FED218A07
:1024300006EB800090ED000A38EEC00A20EE080A94
:10244000B7EEC00A13F08CFA607906F5C87505EB93
:10245000800191ED001A05F5C87101EB8001B7EE1E
:10246000C11A06EB800020EE010BB7EEC00B81ED28
:10247000000A90ED000A38EEC00A20EE080AB7EE16
:10248000C00A13F015FA607905EB800191ED001A8E
:1024900005F5487101EB8001B7EEC11A401C20EE32
:1024A000010BB7EEC00B81ED000A6071BDEC028B31
:1024B00070BD000035FA8E3C1C70022068000220BE
:1024C0000000B443000000000B4A5078052818BFF4
:1024D00070470A489FED0A1B0179407901EB002003
:1024E000400800EE100AB8EE400B20EE010BB7EEEC
:1024F000C00B82ED020A704768000220846F022040
:10250000000000000000903F0B4A5078072818BFD9
:1025100070470A489FED0A1B8179C07901EB0020C2
:10252000400800EE100AB8EE400B20EE010BB7EEAB
:10253000C00B82ED030A704768000220846F0220FE
:10254000000000000000903FDFF880C04DF8044D0F
:102550009CF80100032803D11D49C9788CF80210AA
:102560001A4C9CF802201B4994ED020A2379012A97
:1025700001EB830108BF81ED000A8EBF07285DF8DB
:10258000044B70479CF80000904284BF5DF8044BF8
:102590007047DCED030A521E70EEC01A00EE902A5E
:1025A000421EF8EEE00A81EEA01A00EE902AF8EE44
:1025B000E00A01EE200A81ED000A591C8CF8041093
:1025C000401C8CF800005DF8044B70476800022046
:1025D000846F02201C700220FEE700002DE9F0410C
:1025E0001D4E0027776000F091F837800025778036
:1025F000B760F7607761B7613761FDF703FF0024CB
:10260000804677613088401C3080708810B900F0B7
:1026100095F8B0607088401C708000F057F87069C1
:102620000544601C0404240CEBD0C6E90457404662
:10263000B761FDF7EBFEFDF7E5FE044600F036F866
:10264000064810210CF0B6FA00F040F82046BDE82C
:10265000F041FDF7DBBE0000DC000220DC78022048
:1026600070B5FDF7CFFE084D6C69FDF7CFFE286908
:1026700084428CBF241A0024FDF7C4FE0021696146
:10268000FDF7C4FE204670BDDC00022070B5FDF7EA
:10269000B9FE054DAC69FDF7B9FE286984428CBFCF
:1026A000201A002070BD0000DC00022010B5064C8E
:1026B0002088401C2080608810B900F03FF8A0609E
:1026C0006088401C608010BDDC00022010B50B4CFF
:1026D0006088401E0004000C608018BF10BD00F030
:1026E0002DF8E060A168401A6169814238BF6061DD
:1026F000A169814238BFA06110BD0000DC0002204A
:102700000149486070470000DC00022010B503F06A
:10271000E3FC08490A6842F080720A600649002218
:102720004A600A6842F001020A60BDE81040FFF703
:10273000E7BF0000FCED00E0001000E00148406849
:1027400070470000001000E04A1E4FF0FF0C92B2EC
:10275000634630B424BF0A4C04F580750BD310F8DF
:10276000011B521E81EA0C0192B214F801C08CEADE
:10277000030C6B5CF3D230BC4CEA032070470000C2
:10278000C88C020813484DF804ED87B0016841F089
:1027900080010160016801F080010591016841F448
:1027A000807101600068694600F4807005904020E7
:1027B000009001200190029003200390064802F04F
:1027C0004DFA082000900548694602F047FA07B024
:1027D0005DF804FB30380240001C0240002002403B
:1027E0002DE9F0413C4F80460024386820F0C000BD
:1027F0003860386838601E2015F0ACFA374E002576
:1028000000224021304602F04AFB022015F0A2FAD5
:1028100001223046402102F042FB60060821040EEE
:10282000384602F033FB00281CBF601CC4B2681C91
:10283000C5B2082DE4D3B8F1000F4FF000024FF0FD
:102840004001304624D002F02AFB386820F0C00056
:102850003860386840F040003860022015F07AFA9D
:1028600000223846082102F01AFB022015F072FA05
:1028700001223046402102F012FB022015F06AFAD4
:1028800000223046402102F00AFB2046BDE8F081DC
:1028900002F005FB386820F0C0003860386840F06E
:1028A00040003860022015F055FA01223846082110
:1028B00002F0F5FA022015F04DFA012230464021CF
:1028C00002F0EDFA022015F045FA002230464021D0
:1028D00002F0E5FAD9E7000000200240001C0240A7
:1028E0002DE9F0411C4F0546386820F0C0003860E3
:1028F000386840F040003860184E002240213046D1
:1029000002F0CDFA022015F025FA002415F0800F10
:1029100005D001223846082102F0C1FA04E0002265
:102920003846082102F0BBFA68060122050E30463F
:10293000402102F0B4FA022015F00CFA00223046D1
:10294000402102F0ACFA022015F004FA601CC4B277
:10295000082CDBD3BDE8F08100200240001C0240BF
:1029600070B5134C206820F0C0002060206840F053
:102970004000206001222046082102F090FA0D4D0F
:1029800001224021284602F08AFA1E2015F0E2F9C1
:1029900000222046082102F082FA022015F0DAF91E
:1029A0002846BDE870400022402102F078BA0000BD
:1029B00000200240001C024010B5104C206820F09E
:1029C000C0002060206840F0400020600C480122D8
:1029D000402102F064FA1E2015F0BCF900222046C6
:1029E000082102F05CFA022015F0B4F90122204619
:1029F000BDE81040082102F052BA00000020024059
:102A0000001C024070B5284E0024306820F0C00041
:102A100030603068306001220821304602F03FFA11
:102A2000224D01224021284602F039FA022015F0F9
:102A300091F90821304602F029FA00282CD0601CB8
:102A4000C4B2FA2C1FD93068344620F0C000306080
:102A5000306840F04000306001222846402102F0FA
:102A60001EFA1E2015F076F900222046082102F0F9
:102A700016FA022015F06EF901222046082102F014
:102A80000EFA012070BD022015F064F908213046CD
:102A900002F0FCF90028D2D100222846402102F0A1
:102AA000FEF9002070BD000000200240001C024022
:102AB00070B4BFF34F8FBFF36F8F184900200860C9
:102AC000174D296841F400312960BFF34F8FBFF3E0
:102AD0006F8F14490860BFF34F8F081F006843F6DB
:102AE000FF76114AC0F34E3CC0F3C90406EA4C110C
:102AF000204641EA80731360401EFAD2BCF1010CFB
:102B0000F4D2BFF34F8F286840F480302860BFF3C1
:102B10004F8FBFF36F8F70BC7047000050EF00E025
:102B200014ED00E084ED00E060EF00E010B5806B94
:102B3000816C496D022906D0012180F83510C16CE5
:102B400041F04001C16401F0ADFD10BD2DE9F84335
:102B500080462A489C460F46089B1646016841F469
:102B6000800101600068264C00F480000090A4F110
:102B700050008464A0632268106820F01000106088
:102B80000025204820604FF00070C4E90105401383
:102B9000E560C4E904300011C4E906C040022062C7
:102BA000042060620120C4E90A052046256301F083
:102BB0001DFF204601F05CFF134984F83450A7B193
:102BC0003B4642462046009601F0BFFE2068016861
:102BD00041F01001016003220221392002F0D2FBF2
:102BE000BDE8F843392002F0C1BB01B0334642468C
:102BF0000348BDE8F04301F0E9BF0000303802406F
:102C0000385A02202864024028000550014801F08B
:102C10006BBD0000E859022010B5104C20210E4871
:102C200020600020C4E90101E06020616061A061D2
:102C3000204601F0B1FD2068C16821F01E01C1608D
:102C40002068C16841F00101C1602068016841F459
:102C50008041016010BD000000000550E8590220CD
:102C60000021084610B50BF079F80BF043FB06483D
:102C70000068016841F0010101600448016841F009
:102C80000101016010BD0000385A0220000005500B
:102C9000274870B5274B0068DFF89CC0274C984246
:102CA000274A04D92749096801F4006105E0604515
:102CB00032D92549096801F40061002908BF70BDB7
:102CC0004FF40061984288BF204803D8604588BF10
:102CD0001F4828D901601F48406880471E490020CE
:102CE0000860BFF34F8F081F006843F6FF741B4A4C
:102CF000C0F34E3CC0F3C90504EA4C11284641EA32
:102D000080731360401EFAD2BCF1010CF4D2BFF301
:102D10004F8FBFF36F8F70BDA0428CBF5168116899
:102D200001F40061C9E7A0428CBFD1609160D2E795
:102D3000385A022058640240B8600240586002408D
:102D40000060024004640240006402400C640240DF
:102D5000086402404400022084ED00E074EF00E0CB
:102D60001B4830B4DFF86CC01B4B00681B4C1C4A7E
:102D7000604504D91B49096801F0006105E09842EB
:102D80001AD91949096801F00061002904BF30BC53
:102D900070474FF00061604588BF144803D89842DF
:102DA00088BF13480FD9016012480068002804BF8B
:102DB00030BC704730BC0047A0428CBF51681168DE
:102DC00001F00061E1E7A0428CBFD1609160EBE7C8
:102DD0007C78022058640240B8600240586002408B
:102DE0000060024004640240006402400C6402403F
:102DF00008640240D800022070470000114A507851
:102E0000092898BF704710F0010F08BF70470E4B9C
:102E1000B5EE001B1918185C11F8011C01EB00201D
:102E200000EE100AD07803F50A71B8EE400B01EB02
:102E30008001401C20EE010BB7EEC00B81ED000AB3
:102E4000D070704768000220846F0220C268D1E908
:102E5000002342EA03220B89097B1B0443EA016138
:102E60001143C160002070478268D1E9002342EA23
:102E700003220B89097B1B0443EA01611143816032
:102E8000002070474DF8044D02680D4B1A40D1E9FF
:102E9000013C43EA0C03D1E903C44CEA040C43EAC5
:102EA0000C03D1F814C0896943EA4C2343EA413149
:102EB000114341F0080101605DF8044B00207047A8
:102EC0008101F0FFB3F5804F30B418BF6FF070414F
:102ED00004D040F8221030BC0020704750F8223057
:102EE000DFF824C08D8903EA0C03D1E900C44CEA61
:102EF000041C8C688969240244EA05444CEA040CE9
:102F00004CEA01011943E4E70000F0CF70B4D1F8B6
:102F100000C050F82C201B4BD1E903561A40D1E9D0
:102F2000014335431C432C434D692C438D692C438D
:102F3000CD692C430D6A2C434D6A2C438D6A2C437A
:102F4000CD6A2C430D6B2C438D6B2C434D6B2C4366
:102F50002243082B08BF42F0400240F82C200A6BA5
:102F6000B2F5801F05D10A684AB1026842F48012A6
:102F700002600A681AB10268496B1143016070BCB3
:102F8000002070478004C0FF00EB820270B45368D9
:102F90004FF07E46D1E900C48D8903F040434CEAEE
:102FA000041C8C68240244EA05440D8A4CEA04049B
:102FB000DFF834C00CEB05552C430D7D06EB0565A1
:102FC0002C438D692C4323435360026812F4801F05
:102FD00007D04268098A22F470020CEB01511143B8
:102FE000416070BC002070470000F0FF4DF8044DB8
:102FF000D1E901320C681343D1E903C24CEA020261
:103000001A434B6913438A69012C046843EA020C92
:10301000CB690A6A496A08D04CEA03031A43114390
:103020006FF30E04214301600BE024F4F8441A43CB
:1030300021430A43416802606FF30E014CEA01012B
:1030400041605DF8044B00207047426942EA41014B
:10305000416100207047F8B514460546D1E90002E9
:103060006FF01F0310438A68C96803EB421242EAFB
:10307000412108430090286101F016FF0646A86927
:1030800010F0200F0ED0B4F1FF3F07D024B101F0B3
:103090000BFF801BA04201D90320F8BDA86910F0E6
:1030A000200FF0D10020F8BD2DE9F001D1F804C0C7
:1030B0006FF00F050B682C015B1E05EB0C1C43EA3F
:1030C0000C03D1F808C04FEA0428270304EB0C2CAA
:1030D00043EA0C050B8A2604CC68012A826808EBB7
:1030E000034C8B8A097E07EB035306EB01610DD07D
:1030F000361306EB04342C4344EA0C0C4CEA03036D
:10310000194302F070421143816012E0240322F45B
:103110007042A4F58054234322F470021A43C3681A
:1031200045EA0C0C826003F070434CEA010119433C
:10313000C160BDE8F00100207047000030B539489B
:1031400087B0016841F080010160016801F08001F1
:103150000691016841F48071016000680024012536
:1031600000F4807006908020CDE90104032001A9BD
:10317000CDE903502C4801F071FD2802CDE901058D
:103180002A4D01A9284601F069FDFFF7FBFA00224C
:103190002846A91501F083FE142014F09FFD01229A
:1031A0002846110201F07BFE322014F097FD012227
:1031B000694600208DF8004000F042F9012269467E
:1031C000A42000F03DF91620694601228DF8000088
:1031D000802000F035F90C20694601228DF80000AE
:1031E000882000F02DF902226946A12000F026F87F
:1031F0009DF80000302804BF9DF80110032907D076
:103200009DF8011001291FBF0229012007B030BD20
:10321000C9B201EB002106A0FDF7CCF907B00020F0
:1032200030BD000030380240001C02400020024047
:103230004354502049443A25780D0A002DE9F041C5
:1032400015460E460446FFF78BFB7020FFF748FB40
:10325000FFF7D8FBE0B2FFF743FBFFF7D3FBFFF725
:103260007FFB7120FFF73CFBFFF7CCFB0024002D18
:1032700088BF6F1E0AD9BC4214BF01200020FFF78F
:10328000AFFA3055601CC4B2AC42F4D3BDE8F04193
:10329000FFF792BB2DE9F14FDFF890B10025DFF881
:1032A000949182B02C469BF80000401CC1B260484B
:1032B0008BF80010A0FB0120C008404200EB80000A
:1032C00011EB400001D00A297ED20122022002A97E
:1032D000FFF7B4FF9DF8080010F00F0F74D000F056
:1032E0000F0006287FD2FF214FF0000A01FA00F0FC
:1032F000C0B2C04340F0C000A9F834000120B9F8C2
:103300003410A84001425CD04B480426E84610F82F
:103310001540FFF725FB7020FFF7E2FAFFF772FB7D
:10332000E0B2FFF7DDFAFFF76DFBFFF719FB712045
:10333000FFF7D6FAFFF766FB0024771EBC4214BFE6
:1033400001200020FFF74CFA08F80400601CC4B20A
:10335000B442F3D3FFF730FB99F844009DF8001016
:1033600010F0010F9DF8010001F00F0100EB0121A9
:103370000CD009EB450001849DF802209DF8031054
:1033800002F00F0201EB022181810EE02B48008840
:10339000411A09EB450081819DF802209DF8031038
:1033A00002F00F0201EB022101849DF8000000F001
:1033B000F000802805D009EB4500A0F820A0A0F877
:1033C0000CA0681CC5B200E00DE0052D96D3B9F83D
:1033D0000C100124002902BFB9F8200000288DF844
:1033E00008A08BF800A09DF8080010F01F0F11D165
:1033F000B9F8340010F0800F18BF20F0800007D11A
:103400004FF6FF71A9F80C1000F0E000A9F82010A9
:10341000A9F834009BF80000F02884BF0A208BF83C
:103420000000204603B0BDE8F08F000079000220C4
:10343000CDCCCCCC840002201E8B0208E45A0220A2
:103440002DE9F041002716460D460446FFF788FA9D
:103450007020FFF745FAFFF7D5FAE0B2FFF740FA20
:10346000FFF7D0FA0024002E0AD9285DFFF738FABA
:10347000FFF7C8FA070003D1601CC4B2B442F4D30A
:10348000FFF79AFA3846BDE8F08100002DE9F047D1
:103490002C4E002782B089460DF104080546BA4635
:1034A000B0790024002815D9CDF80080002170885B
:1034B0004A468308B07900FB05F00BF0A1FF708845
:1034C000BDF80410B1EB900F04D1601C84B2B07948
:1034D000A042E9D8B079A04203D102B00020BDE8F3
:1034E000F08728460BF02CFD20B117A03946FDF7D8
:1034F00061F81BE0B9F1FF3F18D0ADF804A0B07936
:10350000002813D970880022BDF804108308B07910
:1035100005FB001011460CF0E9F8BDF80400401C52
:1035200080B2ADF80400B1798142EBD8781C87B243
:10353000032FB5D30AA02946FDF73CF802B00120BD
:10354000BDE8F087F45B02206572726F72206572CD
:1035500061736520626C6F636B3A25640D0A00002D
:1035600062616420626C6F636B20636865636B6586
:10357000643A25640D0A00002DE9F04FDFF814B11C
:103580008A4691461D4683B09BF80610B0FBF1F2C7
:10359000B0FBF1F801FB12000190404600F0E8F8A2
:1035A0000746BBF80A00874203D903B00120BDE8F3
:1035B000F08F9BF806000024002844D9019884422B
:1035C00018D3BDB1BBF80200A0EB0A00A8422CBF83
:1035D000AEB286B200969BF806004B46524607FBF9
:1035E000004108FB00400BF009FBAD1B4FF0000A47
:1035F000B14407E09BF8060007FB004108FB0040D0
:103600000BF0F4FBC8B14FF0AA3000909BF8060015
:10361000042300216A4600FB07F00CF093F89BF8A6
:103620000600042300216A4600FB07F0401C0CF052
:1036300089F8012000F030F8AFE7601C84B29BF8F5
:103640000600A042BAD8C0B2A0421FD1CC216A461F
:1036500001238DF8001000FB07F019460CF072F8FA
:1036600040460BF06DFCBBF80A200020002A88BF02
:10367000DBF814100AD931F81030434502D121F893
:10368000107003E0401C80B28242F4D803B00020E6
:10369000BDE8F08FF45B0220F8B52E4D0646002100
:1036A0006889002888BF4FF6FF7006D96A6922F83A
:1036B00011006A89491C8A42F8D80020A881044672
:1036C0006889002821D9A879042300216A4600FBD3
:1036D00004F00BF0CDFE9DF80000FF280DD106B3DD
:1036E000A879012300216A4600FB04F0401C0BF07E
:1036F000BFFE9DF80000FF2813D017A02146FCF75D
:1037000059FF6889641CA042DDD86989002000291E
:1037100088BF6A6918D932F810308B4211D3E8811A
:1037200012E09DF803109DF8020000EB012168896A
:10373000884284BF686920F81140A889401CA8818C
:10374000DFE7401C8842E6D3E889642834BF0220C2
:103750000020F8BDF45B022062616420626C6F633C
:103760006B20696E6465783A25640D0A00000000DC
:1037700070B5114E0446114D70892968401E88426B
:1037800038BF286004F00101286800F019F8B0F192
:10379000FF3F0CD170892968401E884209D904F086
:1037A0000101286000F00CF8B0F1FF3F01D0286063
:1037B00070BD4FF0FF3070BDF45B0220600002204E
:1037C000F8B50F460021441C00911CBF01250D4E89
:1037D00012D025EA0400B8420CD1B079611E04234E
:1037E0006A4600FB01F000210BF042FE0098B0F1A8
:1037F000FF3F04D0641EECD14FF0FF30F8BD601ED7
:10380000F8BD0000F45B02202DE9F047544D00267E
:1038100082B0344601274FF00208AE816889002843
:1038200088BF4FF0AA3944D98DF800600123A879E8
:1038300000216A4600FB04F00BF01AFE9DF8000020
:10384000FF2818BF404601D080B12EE0A87901239F
:1038500000216A4600FB04F0401C0BF009FE9DF8B5
:103860000000FF280CBF30463846EDE720460BF03D
:1038700067FBB8B13BA02146FCF79CFECDF8009059
:103880000423A87900216A4600FB04F00BF05AFFDC
:10389000A879042300216A4600FB04F0401C0BF0C9
:1038A00051FF02E0A889401CA8816889641CA042DD
:1038B000BAD8A9892FA0FCF77DFEA88964283EBF4D
:1038C000012002B0BDE8F087C0EB40102E49002473
:1038D00000EB40000196A1FB00104FEA501A6889E6
:1038E000002834D98DF800600123A87900216A46A8
:1038F00000FB04F00BF0BCFD9DF80000FF2818BF92
:10390000C14603D0B9F1000F1DD10FE0A979012301
:103910006A4601FB04F00021401C0BF0A9FD9DF854
:103920000000FF280CBFB146B946EBE7A879022397
:1039300001AA194600FB04F00BF004FF0198401C9B
:103940000190504503D06889641CA042CAD8012068
:10395000FFF7A2FE002818BF022002B0BDE8F087E2
:10396000F45B022042616420626C6F636B3A2564F1
:103970000D0A0000676F6F645F626C6F636B6E753A
:103980006D3A25640D0A00001F85EB5110B50BF050
:1039900001FB002821D1194C616900291CBF0020BE
:1039A00016F06EFD60894100002016F0A1FD6061F7
:1039B00061894900FDF7EEFA606970B10120FFF7F7
:1039C0006BFE60B10EA0FCF7F5FDFFF71DFF90B197
:1039D00011A0FCF7EFFD022010BD012010BD618990
:1039E00012A0FCF7E7FDA18916A0FCF7E3FDE18931
:1039F00019A0FCF7DFFD002010BD0000F45B0220E1
:103A0000666F726D6174206E616E6420666C6173A6
:103A1000682E2E2E0D0A0000666F726D617420668E
:103A200061696C6564210D0A00000000746F7461A7
:103A30006C20626C6F636B206E756D3A25640D0AA5
:103A400000000000676F6F6420626C6F636B206E14
:103A5000756D3A25640D0A0076616C696420626CAC
:103A60006F636B206E756D3A25640D0A00000000CF
:103A70002DE9FF4F5FEA0309144681B082464FF0FB
:103A800000067DD0DFF848C1BCF802009CF8062093
:103A9000B0FBF4F101FB02F502998B19B3FBF5F1D0
:103AA000BCF80E508D4232BF4FF6FF71DCF8145057
:103AB00035F81110BCF80A508D4203D805B001202A
:103AC000BDE8F08FB0FBF4FC0CFB02FCB3FBFCF593
:103AD0000CFB153303FB04F3B3FBF0FC01FB02C743
:103AE000B3FBF0F100FB1138A0EB0800B0FBF4F0E1
:103AF00085B2A9EB0600854288BF85B205FB04FBB1
:103B00001FFA88F152461FFA8BF338460BF00CFB74
:103B1000032809D11FFA8BF352461FFA88F1384661
:103B20000BF002FB032807D0042818BF002845D05B
:103B300005B00220BDE8F08F1FFA88F15B465246BF
:103B40003846FFF719FDDFF888804FF0FF3198F80D
:103B50000600B7FBF0F0FFF799FC80B998F8060073
:103B60000021B7FBF0F0FFF791FC834698F80600C0
:103B7000B7FBF0F00BF0E4F9BBF1000F1ED000E052
:103B800022E098F80600042300216A46B7FBF0F70C
:103B90004FF0AA30009098F8060000FB07F00BF0F9
:103BA000D1FD98F80600042300216A4600FB07F0C7
:103BB000401C0BF0C7FD0120FFF76EFD04FB05AABA
:103BC0002E444E45FFF45EAF05B00020BDE8F08FF7
:103BD000F45B02202DE9FF4F85B015465FEA030B29
:103BE0004FF000084FF0FF3003907CD0DFF838C171
:103BF000BCF802009CF80620B0FBF5F101FB02F4D2
:103C0000069901EB0803B3FBF4F1BCF80E408C42BB
:103C100032BF4FF6FF76DCF8144034F81160BCF880
:103C20000A10B14203D809B00120BDE8F08FB0FB03
:103C3000F5F101FB02F1B3FBF1FC01FB1C3101FBCF
:103C400005FABAFBF0F106FB02110291BAFBF0F1A2
:103C500000FB11A9ABEB08010491A0EB090080B2B5
:103C6000B0FBF5F08CB2ADF80400A04298BF04465A
:103C700004FB05F701A800901FFA89F102984FF0A4
:103C8000FF32C7F38F030BF0BBFB18B109B0022062
:103C9000BDE8F08FBDF80400B0EB970F18D1BBB2B0
:103CA000059A1FFA89F102980BF05EFC80B903981F
:103CB000B0422ED0CC208DF800001B4801236A466C
:103CC0001946807900FB06F00BF03CFD039600B32B
:103CD00015488179408801FB00F0A0EB0A00B0FB99
:103CE000F5F080B200E01BE00499ADF804008CB25E
:103CF000844228BF044604FB05F71FFA89F1059AA0
:103D000002983B46FFF738FC18B109B00320BDE824
:103D1000F08F0599A044D84539440591FFF466AF6A
:103D200009B00020BDE8F08FF45B02202DE9F041DE
:103D3000534888B0016841F080010160016801F0DA
:103D400080010791016841F48071016000680024DE
:103D50000326DFF8308100F48070079080256946E3
:103D600001274046CDE90054CDE9027600F076FF08
:103D700068006946CDE90007434F384600F06EFF02
:103D8000FEF700FD00223846690001F088F80A209D
:103D900013F0A4FF01223846110201F080F80A2036
:103DA00013F09CFFCDE90054CDE902466946404638
:103DB00000F054FF642013F091FF042248F24010F9
:103DC00005A900F07BF805A98DF818402FA0FCF795
:103DD000F1FB31A105A8FDF7FFF800281EBF012067
:103DE00008B0BDE8F0810220012205A98DF8140079
:103DF00048F2400000F08AF9012248F2470005A984
:103E000000F05CF89DF8141060292AD224A0FCF779
:103E1000D1FB28488088A0F5AA41103921D18DF81E
:103E20001C4001218DF81D10002023499DF81C2005
:103E30000B5C401CC0B2B8281A448DF81C20F5D386
:103E4000D0B21D49C043401C8DF81C00B82248F276
:103E5000470000F05BF9022248F2FF0007A900F0DA
:103E600055F90A2013F03AFF012248F2400005A953
:103E70008DF8144000F04AF908B00020BDE8F08148
:103E800030380240001C02400020024043545020C1
:103E900049443A25730D0A003931343700000000D7
:103EA00044656661756C74205665723A25640D0A26
:103EB00000000000E45A0220288B02082DE9F0419E
:103EC00015460E460446FEF74BFD2820FEF708FD7A
:103ED000FEF798FD200AFEF703FDFEF793FDE0B222
:103EE000FEF7FEFCFEF78EFDFEF73AFD2920FEF7F9
:103EF000F7FCFEF787FD0024002D88BF6F1E0AD94E
:103F0000BC4214BF01200020FEF76AFC3055601C43
:103F1000C4B2AC42F4D3BDE8F041FEF74DBD0000A1
:103F20002DE9F14F744E0024744982B0744DA246BD
:103F30003078401CC0B23070A1FB0021C908494252
:103F400001EB810110EB410101D00A287AD2012254
:103F500048F24E1002A9FFF7B1FF9DF808004FF09C
:103F6000000910F0800F0BD000F00F00062807D2D8
:103F7000012248F24E1001A98DF8049000F0C6F815
:103F80009DF8080010F00F0F5CD000F00F0006281D
:103F900058D2FF21DFF86CB1DFF86C814FF0010AD5
:103FA00001FA00F0C0B28DF8040095F83470C043F7
:103FB00040F0C000A886A889A882288C2885A88EF1
:103FC0000AFA04F1084250D03BF814000422694672
:103FD000FFF774FFB8F80400A0F5AA41103904D027
:103FE000A0F58641423917D03FE095F8440010F023
:103FF000010F16D09DF801109DF8000000EB012183
:1040000005EB440001849DF803209DF8021001EBAC
:104010000221C1F5487127E095F8440010F0010F26
:1040200011D09DF801109DF8000000EB012105EB77
:10403000440081819DF803209DF8021001EB0221CC
:10404000018412E03AE09DF801109DF8000000EBB9
:10405000012105EB440001849DF803209DF8021026
:1040600001EB0221C1F588718181601CC4B2052C6D
:10407000A5D3A9894FF0010AB8F8002028468A4242
:1040800007D3018CB8F802208A4228BF86F8009036
:1040900014D29DF8081001F00F01012906D9C18939
:1040A0008181418C298486F8009007E0818A818192
:1040B000018D018480218DF80810AF869DF80800DD
:1040C00000F08F0080280DD1A88E10F0800F18BF4F
:1040D00020F0800005D14FF6FF71A98100F0E000CB
:1040E0002984A8863078F02884BF0A203070504692
:1040F00003B0BDE8F08F00007A000220CDCCCCCC1C
:1041000084000220E08B0208E45A02202DE9F041ED
:10411000002715460E460446FEF722FC2820FEF72F
:10412000DFFBFEF76FFC200AFEF7DAFBFEF76AFC06
:10413000E0B2FEF7D5FBFEF765FC0024002D0AD99E
:10414000305DFEF7CDFBFEF75DFC070003D1601C80
:10415000C4B2AC42F4D3FEF72FFC3846BDE8F08180
:104160002DE9F041504888B0016841F080010160BC
:10417000016801F080010791016841F480710160DC
:1041800000680125DFF82481802600F48070079004
:104190000024009603270397CDE901456946404670
:1041A00000F05CFD28026946CDE90005404D284637
:1041B00000F054FDFEF7E6FA00222846A91500F0AB
:1041C0006EFE0A2013F08AFD01222846110200F03B
:1041D00066FE0A2013F082FDCDE90064CDE90247B6
:1041E0006946404600F03AFD642013F077FD042252
:1041F00048F2401005A900F075F805A98DF818409F
:104200002CA0FCF7D7F92FA105A8FCF7E5FE0028A4
:104210001EBF012008B0BDE8F0810220012205A9DF
:104220008DF8140048F24000FFF770FF012248F2B9
:10423000470005A9FFF742FE9DF81410412924D23A
:1042400022A0FCF7B7F98DF81C4001218DF81D1054
:10425000002023499DF81C200B5C401CC0B2B828EC
:104260001A448DF81C20F5D3D0B21D49C043401C20
:104270008DF81C00BA2248F2470000F08BF90222A8
:1042800048F2FF0007A900F085F90A2013F026FD87
:10429000012248F2400005A98DF81440FFF736FFCF
:1042A00008B00020BDE8F08130380240001C024018
:1042B000002002404354502049443A25730D0A0D12
:1042C0000A000000393237310000000044656661A1
:1042D000756C74205665723A25640D0A0000000062
:1042E000EA8B02082DE9F04115460E460446FEF71A
:1042F00037FB2820FEF7F4FAFEF784FB200AFEF7CE
:10430000EFFAFEF77FFBE0B2FEF7EAFAFEF77AFB80
:10431000FEF726FB2920FEF7E3FAFEF773FB0024E5
:10432000002D88BF6F1E0AD9BC4214BF0120002097
:10433000FEF756FA3055601CC4B2AC42F4D3BDE867
:10434000F041FEF739BB00002DE9F14F82B04FF08C
:10435000000B8DF800B05C46DFF82492DFF828826D
:1043600099F80000401CC1B2864889F80010A0FBF3
:104370000120C008404200EB800011EB400001D05A
:104380000A297CD2012248F24E1002A9FFF7AAFFA7
:104390009DF8080010F0800F0BD000F00F000B28E4
:1043A00007D28DF800B00122694648F24E1000F0A5
:1043B000F1F89DF8080010F00F0F60D000F00F002A
:1043C0000B285CD24FF6FF71B8F834A001FA00F068
:1043D000C04340F0C000A8F83400B8F80C00A8F8BA
:1043E0001E00B8F82000A8F832008DF800B09DF843
:1043F00000000A2874D2B8F834109DF8002001207B
:104400009040014263D061489DF80010062501AF3D
:1044100030F81140FEF7A4FA2820FEF761FAFEF703
:10442000F1FA200AFEF75CFAFEF7ECFAE0B2FEF7CA
:1044300057FAFEF7E7FAFEF793FA2920FEF750FA4B
:10444000FEF7E0FA00246E1EB44214BF01200020E3
:10445000FEF7C6F93855601CC4B2AC42F4D3FEF77F
:10446000ABFA98F8440010F0010F18D09DF807003F
:104470009DF8061001EB00209DF8001000E05CE0C4
:1044800008EB410108849DF805109DF8040000EB3D
:1044900001209DF8001008EB4101888117E09DF88C
:1044A00007109DF8060000EB01209DF80010C0F5F4
:1044B000487008EB410188819DF805109DF80400C3
:1044C00000EB01209DF8001008EB410108849DF8E5
:1044D0000000401C8DF800009DF800000A288AD3D7
:1044E0002B480124B8F80C1002888A4207D3B8F888
:1044F00020104088884228BF89F800B01DD29DF85E
:10450000080000F00F0001280AD9B8F80E00A8F83A
:104510000C00B8F82200A8F8200089F800B00CE0E0
:10452000B8F81E00A8F80C00B8F83200A8F820006F
:1045300080208DF80800A8F834A09DF8080000F04D
:104540008F00802811D1B8F8340010F0800F18BF08
:1045500020F0800007D14FF6FF71A8F80C1000F48E
:104560006040A8F82010A8F8340099F80000F0285E
:1045700084BF0A2089F80000204603B0BDE8F08F10
:104580007B000220CDCCCCCC84000220A48C02087D
:10459000E45A02202DE9F041002715460E46044654
:1045A000FEF7DEF92820FEF79BF9FEF72BFA200A2A
:1045B000FEF796F9FEF726FAE0B2FEF791F9FEF75C
:1045C00021FA0024002D0AD9305DFEF789F9FEF7A3
:1045D00019FA070003D1601CC4B2AC42F4D3FEF751
:1045E000EBF93846BDE8F08130B413468C460446FA
:1045F00012F0070018BF012000EBD300217810FB58
:1046000003F08129C2B2607828BF402825D3FF2853
:1046100018BFFF2921D07F2834BF40384138C4B2A9
:10462000A1F18100C0B20C2BC0EB401101EB801056
:104630001B4904EB400000FB02F01CD0102B21D0E2
:10464000182B26D0202B1CBF30BC7047D1F821106E
:104650000144604630BC10F0D3BE0023002A8EBF58
:10466000002030BC70470CF8010B591CCBB29A42A9
:10467000F9D830BC7047D1F8091030BC014460460D
:1046800010F0BEBED1F8111030BC0144604610F0ED
:10469000B7BED1F8191030BC0144604610F0B0BE6E
:1046A000A0360520704700000A48012110B50170AE
:1046B0000021094801800121084800F0ECFB08486E
:1046C0000178491C017007480068C16841F0010188
:1046D000C16010BD01000220100002200004024051
:1046E00044000220E85902202DE9F0410446006808
:1046F00005694FF00406274F15F0040F0BD04661F3
:10470000E06C40F00200E06484F83560A06C07655E
:10471000A06C00F058F915F0020F0DD021680220AE
:104720004861E06C40F00100E06484F83560A06C02
:104730000765A06C00F047F915F0100F05D021684F
:1047400010204861204600F085F815F0080F05D0CC
:10475000216808204861204600F0F6F815F0010FA6
:1047600008BFBDE8F0812068016811F0020F03D096
:10477000C16821F01E01C1602068C16821F00101FB
:10478000C1602168012048612046FFF78DFFBDE828
:10479000F08100002D2B0008002804BF0120704785
:1047A00010B5044690F83500002804BF204600F0FC
:1047B00053F8022084F8350020680168244A11402B
:1047C0000160616960680843D4E90312114308433A
:1047D000A1680843A1690843216A0843616A084344
:1047E000A16A0843E16A0843216B0143206802681B
:1047F00011430160606810281DD14FF47F42617F32
:10480000207F4FF07F4392FAA2F293FAA3F3B2FA19
:1048100082F2B3FA83F391404FF47F020843A17F01
:1048200092FAA2F2B2FA82F29140E27F9A401143E8
:104830000843216888612068C16841F01E01C16099
:104840000020E064012084F83500002010BD000045
:1048500007F0E0FF7047000034484DF804ED87B0E2
:10486000016841F001010160006800F0010005905D
:104870002F48016841F001010160016801F0010168
:104880000591016841F002010160016801F0020137
:104890000591016841F004010160016801F0040123
:1048A0000591016841F008010160016801F008010B
:1048B0000591016841F0800101600068694600F0DF
:1048C000800005904020009002200190012002907D
:1048D000032003900D200490164800F0BFF94FF418
:1048E000607000901448694600F0B8F94FF43C60DD
:1048F00000901248694600F0B1F908200090104875
:10490000694600F0ABF94FF4807000900D4869469D
:1049100000F0A4F902224E20114600F033FD4E2093
:1049200000F024FD07B05DF804FB000034380240BD
:1049300030380240000002400004024000080240FB
:10494000000C0240001C0240704770B484684FF0B5
:10495000000C039D802C13D090F83440012C02BF32
:10496000022070BC7047012480F8344090F8354034
:10497000012C18BF4FF0020C08D070BC6046704785
:104980004FF4807141654FF0010CF6E7022480F886
:1049900035400468266846F4802626600468236152
:1049A00003685D608368402B036803BF9A600268F8
:1049B000D16099601CBF0168CA600068016841F05D
:1049C00001010160D9E790F83510022903D0802158
:1049D000416501207047052180F8351000680168A5
:1049E00021F001010160002070470000002804BF91
:1049F0000120704790F83510022904BF022070474B
:104A000001680A6822F001020A6001684FF0000C98
:104A1000C1F800C00168C1F804C00168C1F808C04D
:104A20000168C1F80CC00168C1F810C021210268FA
:104A3000516101680C4BCAB2103A6FF30901A3FB34
:104A400002320A4B1209032A9B5CC36588BF091D09
:104A50003F2281659A408A60C0F854C080F835C012
:104A600080F834C000207047ABAAAAAAF22E020830
:104A700070B5044600F018FA002C054604BF01206A
:104A800070BD0026022084F8346084F83500206868
:104A9000016821F0010101602068006810F0010F39
:104AA0000FD000F001FA401B052805D920206065D1
:104AB000032084F8350070BD2068006810F0010FF5
:104AC000EFD1216808683E4A1040D4E901231A4317
:104AD000D4E9033C43EA0C031A4363691A43A3690C
:104AE0001A43E3691A43236A1A431043626A042A89
:104AF00003D1D4E90B231A43104308602368586993
:104B00004FF0010C20F00701606A014304283ED1F8
:104B1000A06AA269014352B1B2F5005F1CD000281F
:104B20001CBF012802282CD0032826D02FE020B15A
:104B3000012807D002280AD029E0E06A10F0807F1F
:104B40001FD124E0E06AB0F1C07F20D119E0E06A13
:104B500010F0807F15D11AE098B1012808D0022802
:104B60000FD0032804BFE06AB0F1C07F09D00EE087
:104B7000E06A10F0807F04D109E0E06A10F0807FE5
:104B800005D04020606584F835C0012070BD5961B2
:104B900020680C4AC1B210396FF30900A2FB012151
:104BA000094A09090329525CE26588BF001D3F21BB
:104BB000A06591408160666584F835C0002070BDB5
:104BC0003F8010E0ABAAAAAAF22E020830B490F8F7
:104BD00034C00024BCF1010F02BF022030BC70477A
:104BE0004FF0010C80F834C090F835504FF0000CB5
:104BF000012D1CBF80F834C0022402D0204630BCF6
:104C00007047022580F83550C0F854C0D0F800C075
:104C1000DCF8005025F48025CCF80050D0F800C016
:104C2000CCF804308368402B036803BF9A600268A5
:104C3000D16099601CBF0168CA600068016841F0DA
:104C400001010160DAE731B500F02EF9044600F009
:104C50002BF90099001B8842F9D338BD2DE9F84F94
:104C6000DFF81C920022DFF814820F2709F1040AF2
:104C70004FF0010E0B680EFA02F52B40AB4240F0EC
:104C8000F780D1F804C0BCF1020F18BFBCF1120FBD
:104C900012D14FEAD20C00EB8C0CDCF820605407E8
:104CA000E40E07FA04FB26EA0B06D1F810B00BFA63
:104CB00004F43443CCF8204006684FEA420C91F8E3
:104CC00004B003240BF0030B04FA0CF4A6430BFA14
:104CD0000CFB4BEA060606604E68012E18BF022E3A
:104CE00003D0112E18BF122E11D18668D1F80CB046
:104CF000A6430BFA0CFB4BEA06068660466826EADA
:104D000005050E79C6F30016964035434560C56823
:104D100025EA04048D6805FA0CFC4CEA040CC0F882
:104D20000CC0D1F804C01CF0805F7CD0D8F800C063
:104D30004CF4804CC8F800C0D8F800C00CF4804C8B
:104D4000CDF800C022F0030C0CF1804505F5983534
:104D5000D5F808C89407240F07FA04F62CEA0606CB
:104D6000A0F1804CBCF5003C48D0A0F1804CBCF5D3
:104D7000013C08BF4FF0010C40D0A0F1804CBCF5C5
:104D8000023C08BF4FF0020C38D0A0F1804CBCF5BB
:104D9000033C08BF4FF0030C30D0A0F1804CBCF5B1
:104DA000043C08BF4FF0040C28D0A0F1804CBCF5A7
:104DB000053C08BF4FF0050C20D0A0F1804CBCF59D
:104DC000063C08BF4FF0060C18D0A0F1804CBCF593
:104DD000073C08BF4FF0070C10D0A0F1804CBCF589
:104DE000083C08BF4FF0080C08D0A0F1804CBCF57F
:104DF000093C0CBF4FF0090C4FF00A0C0CFA04FCF4
:104E00004CEA060CC5F808C8D9F800C04C682CEA72
:104E1000030C14F4803F18BF4CEA030CC9F800C01F
:104E2000DAF800C000E023E04C682CEA030C14F42C
:104E3000003F18BF4CEA030CCAF800C0114CD4F86C
:104E400000C04D682CEA030C15F4801F18BF4CEA13
:104E5000030CC4F800C00C4CD4F800C04D682CEA18
:104E6000030C15F4001F18BF4CEA030CC4F800C073
:104E7000521C102AFFF4FEAEBDE8F88F4438024001
:104E8000003C0140083C01400C3C014000690840E6
:104E900018BF012070474269514041617047002AA4
:104EA00008BF09048161704701480068704700002D
:104EB0002C00022002480168491C01607047000074
:104EC0002C000220074810B5016841F40071016010
:104ED000052000F089FA0F2000F006F800F0C4F970
:104EE000002010BD003C024010B5044607484FF4B6
:104EF0007A720068B0FBF2F002F0C8FA0022214694
:104F0000501E00F03FFA002010BD000028000220D3
:104F10002DE9F05F044690F8A000012804BF0220AC
:104F2000BDE8F09F0125022084F8A05084F8A1007C
:104F300002EB820000EBC20004EB8003B1E8C11F6A
:104F40003833A3E8C11F91E8C111203983E8C111AA
:104F5000204609F0EDFC2068456284F8A15000204D
:104F600084F8A000BDE8F09F002804BF012070472E
:104F700070B5044690F8A100002520B9204684F8B9
:104F8000A05000F077F8022084F8A1002068816921
:104F900021F070418161D4E901010843D4E9031291
:104FA000114301432068826911438161206882684E
:104FB0002F490A408260A08A020420688368D4F8DE
:104FC00018C043EA0C031A4382602068C2680A4092
:104FD000C260A08B02042068C368D4F820C043EAF2
:104FE0000C031A43C260206802690A400261A08C67
:104FF000020420680369D4F828C043EA0C031A436A
:1050000002612068426911404161A08D010420685D
:105010004269236B1A431143416194F8350002023F
:1050200094F8360001042068C36A03F07F43C3622A
:105030002068C36A114394F834C043EA0C0319434F
:10504000C1622068416B41F0040141632068416BFB
:1050500041F0020141632068816941F001018161F1
:10506000C4F8A450012084F8A100002070BD000005
:1050700000F800F0354810B586B0016841F0806155
:105080000160006800F0806005903148016841F4DB
:1050900000010160016801F400010591016841F01F
:1050A00002010160016801F002010591016841F00F
:1050B00020010160016801F020010591016841F0C3
:1050C00040010160016801F040010591016841F073
:1050D00080010160016801F080010591016841F4DF
:1050E0008071016000680324694600F480700590B7
:1050F0002020009001200190CDE902041548FFF71F
:10510000ADFD4FF4806000900220019000206946C0
:10511000CDE902040E2004900F48FFF79FFD4FF4E5
:105120000C6000900D486946FFF798FD4FF47E40F3
:1051300000900B486946FFF791FD40F2F760009040
:1051400008486946FFF78AFD06B010BD44380240A2
:1051500030380240000402400014024000180240AF
:10516000001C02400020024070B5044690F8A000E8
:105170008C46012804BF022070BD0125022084F85E
:10518000A05084F8A10003EB830000EBC30004EB04
:10519000800000F13801C0F838C0006E6044C1E9F9
:1051A0000102C86A10441A46C860204609F0C0FBD4
:1051B0002068456284F8A150002084F8A00070BDEA
:1051C00070B5044690F8A0008C46012804BF022068
:1051D00070BD0125022084F8A05084F8A10003EBE3
:1051E000830000EBC300002604EB800000F13801CF
:1051F0002046C1E9006CC1E90262C1E90AC21A464F
:1052000009F096FB2068456284F8A150002084F8DC
:10521000A06070BD134A41781160111D03780A1D0A
:10522000002B04BF002008601AD043680B60017B8C
:10523000C37A090741EA0361837A41EAC341437BA8
:1052400041EA8341837B41EA4341C37B41EA034115
:10525000437A41EA0321037A007841EA4301084393
:105260001060704798ED00E07047002804BF0120EF
:10527000704770B5044690F8210015460E4628B9CF
:10528000002084F82000204600F018F82068211D36
:10529000FDF7F8FDD4E900023146FDF7E5FDD4E95C
:1052A00000022946FDF7D2FD2068016841F00401A3
:1052B0000160012084F82100002070BD264870B5EF
:1052C00086B0016841F001010160006800F0010052
:1052D00005902248016841F008010160016801F071
:1052E00008010591016841F010010160016801F0B9
:1052F00010010591016841F040010160006800243F
:105300000325174E00F04000059040206946CDE986
:1053100000040120CDE902053046FFF79FFC71151E
:1053200000910C200221CDE90114CDE903500D4874
:105330006946FFF793FC4DF63300694602940090EE
:105340003046FFF78BFC4FF4F0600090064869464A
:10535000FFF784FC06B070BD383802403038024098
:10536000000C02400018024000100240012200F030
:105370001F0102FA01F14009800000F1E020C0F8AD
:1053800000117047174B4DF8044D1B68C3F30223FF
:10539000C3F1070CBCF1040F88BF4FF0040C1C1DB7
:1053A000072C34BF0023DB1E012404FA0CFCACF1F3
:1053B000010C0CEA0101994004FA03F35B1E1A4048
:1053C000114300284FEA0111B8BF00F00F0000F1AF
:1053D000E020B4BF80F8141D80F800145DF8044B81
:1053E000704700000CED00E0074A00F0070011686C
:1053F0004FF6FF03194041EA002040F0FD7040F0F5
:1054000080601060704700000CED00E01C4838B56B
:10541000016841F08051016000681A4C00F0805032
:105420000090206840F480302060FFF73DFD054685
:10543000606810F4803F09D1FFF736FD401BB0F5DE
:105440007A7F14D8606810F4803FF5D0206840F46B
:1054500000302060FFF728FD0546606810F4003F2B
:105460000BD1FFF721FD401BB0F57A7F01D9032056
:1054700038BD606810F4003FF3D0002038BD000054
:1054800040380240007000402DE9F84F16468A4629
:105490000446FFF709FD834694F83800012804BF4D
:1054A0000220BDE8F88F012784F8387094F839009D
:1054B0004FF00008012818BF022504D084F8388076
:1054C0002846BDE8F88FC4F83C804FF0020984F804
:1054D0003990002220215B46204600960DF088FB83
:1054E0000500EBD10022514620460DF0FBF9DAF819
:1054F0002400002818BF84F83970DFD101225B46F0
:105500000221204600960DF073FB0500D6D12068DD
:10551000C0F80C9084F83970D0E70000F8B5044664
:10552000FFF7C2FC002C074604BF0120F8BD94F829
:105530003800012804BF0220F8BD012684F8386035
:1055400094F83900002538B984F83850204600F026
:1055500045F841F288302064206801686FF0FF034D
:10556000A26821F4F85103EB022211430160206C80
:10557000002220213B46009020460DF039FB01001F
:1055800026D1E269E06823791043226A42EA036285
:1055900002432068036823F0D00323F07F431A43BB
:1055A0000260D4E90502024320684368DFF828C09E
:1055B00003EA0C03B4F810C043EA0C431A434260F8
:1055C0002068026842F001020260E56384F83960F5
:1055D00084F838500846F8BDFEF8E0FF224830B5A0
:1055E00087B0016841F002010160006800F002002C
:1055F00005901E48016841F002010160016801F058
:1056000002010591016841F0200101600068032456
:10561000174D694600F020000590402000900220C0
:1056200001900120CDE902040A2004902846FFF7EA
:1056300015FB210200910021CDE902140D4C6946B1
:105640002046FFF70BFB0421009109212846049115
:105650006946FFF703FBC020694600902046FFF72C
:10566000FDFA07B030BD0000383802403038024043
:1056700000040240001402402DE9F84F15468A4606
:105680000446FFF711FC81462068816900F120067D
:1056900094F83820012A04BF0220BDE8F88F0127C2
:1056A00084F8387094F839204FF00008012A18BFA8
:1056B000022003D084F83880BDE8F88FC4F83C801D
:1056C000BAF1000F35D0222284F839200269521C29
:1056D00062860269521C2286C4F82CA0426922F01C
:1056E000406242F08062426120688161608E90B1C8
:1056F00001224B460621204600950DF079FAA8B903
:105700003178E06A421CE2620170608E401E608661
:10571000608E0028ECD101224B46022120460095E4
:105720000DF066FA10B922680221D16084F8397050
:10573000C0E7E06B40F00800E0630120BAE72DE924
:10574000F84F15468A460446FFF7AEFB81462068AF
:1057500094F8381000F12006012904BF0220BDE8AA
:10576000F88F012784F8387094F839104FF000084A
:10577000012918BF022003D084F83880BDE8F88FD3
:10578000C4F83C80BAF1000F31D0122184F83910EE
:105790000169491C61850169491C2185C4F824A05F
:1057A000416921F040614161608D90B101224B4619
:1057B0000421204600950DF01BFAA8B9606A411C2F
:1057C000616200783070608D401E6085608D0028B9
:1057D000ECD101224B460221204600950DF008FA3B
:1057E00010B922680221D16084F83970C4E7E06BF7
:1057F00040F00800E0630120BEE700002DE9F84F0B
:1058000004460078DFF82C944FF0000B10F0010FE5
:105810005D4610D0D9F8000020F40000C9F800005F
:10582000D9F80000616B0843C9F80000606B0028DC
:1058300008BF4FF0010B2068FF4E10F4002F0FD06F
:105840003068E16B20F4401008433060E06BB0F545
:10585000801F08BF4FF0010B02D0002808BF0125B0
:10586000206810F4801F0FD03068216C20F44000B5
:1058700008433060206CB0F5800F08BF4FF0010B7B
:1058800002D0002808BF0125206810F0807F18BFD3
:105890004FF0010B10F0200F71D0E848016841F083
:1058A000805101600068DFF8988300F0805000901C
:1058B000D8F8000040F48070C8F80000FFF7F4FA50
:1058C0000746D8F8000010F4807F0AD1FFF7ECFA01
:1058D000C01B642800F23083D8F8000010F4807FE9
:1058E000F4D0DFF86083D8F8000010F4407031D0B5
:1058F000218E01F4407181422CD0D8F80000D8F8F4
:10590000001020F4407041F48031C8F80010D8F83D
:10591000001021F48031C8F80010C8F80000D8F851
:10592000000010F0010F15D0FFF7BEFA0746D8F8B7
:10593000000010F0020F08BF41F2883A0AD1FFF7C9
:10594000B3FAC01B504500F2F782D8F8000010F0FF
:10595000020FF4D0206B4FF4407181431CBFD9F883
:10596000000020F4F81000F0EE80C9F80000D8F82C
:105970000000218EC1F30B010843C8F80000207815
:1059800010F0100F07D0306820F080703060306861
:10599000A16B08433060208810F4804FAA4805D0DE
:1059A0000168626E21F4403111430160218811F4D5
:1059B000004F05D00168A26E21F44021114301601F
:1059C000216811F4803F05D00168E26E21F4401196
:1059D00011430160216811F4003F05D00168226F76
:1059E00021F4400111430160217811F0400F05D0EE
:1059F0000168626C21F0030111430160217811F00C
:105A0000800F05D00168A26C21F00C0111430160E8
:105A1000218811F4807F05D00168E26C21F030010B
:105A200011430160218811F4007F05D00168226DC7
:105A300021F0C00111430160218811F4806F05D06D
:105A40000168626D21F4407111430160218811F4F5
:105A5000006F05D00168A26D21F44061114301601F
:105A6000218811F4805F05D00168E26D21F4405176
:105A700011430160218811F4005F05D00168226E96
:105A800021F4404111430160216811F4800F05D0D9
:105A90000168A26F21F0806111430160216811F457
:105AA000001F0AD00168E26F21F00061114301601C
:105AB000E16FB1F1006F08BF0125216811F0080FF7
:105AC00018BF012511F4802F05D00168626F21F005
:105AD000407111430160216811F4000F06D0016884
